{
  "address": "0x7Ca399e97c9E676Ce469B0611901a4E6EA9F6904",
  "abi": [
    {
      "inputs": [],
      "stateMutability": "nonpayable",
      "type": "constructor"
    },
    {
      "anonymous": false,
      "inputs": [
        {
          "indexed": true,
          "internalType": "address",
          "name": "creator",
          "type": "address"
        },
        {
          "indexed": false,
          "internalType": "bytes32",
          "name": "role",
          "type": "bytes32"
        },
        {
          "indexed": false,
          "internalType": "string",
          "name": "message",
          "type": "string"
        },
        {
          "indexed": true,
          "internalType": "address",
          "name": "beneficiary",
          "type": "address"
        },
        {
          "indexed": false,
          "internalType": "uint256",
          "name": "amount",
          "type": "uint256"
        }
      ],
      "name": "ProposalAction",
      "type": "event"
    },
    {
      "anonymous": false,
      "inputs": [
        {
          "indexed": true,
          "internalType": "bytes32",
          "name": "role",
          "type": "bytes32"
        },
        {
          "indexed": true,
          "internalType": "bytes32",
          "name": "previousAdminRole",
          "type": "bytes32"
        },
        {
          "indexed": true,
          "internalType": "bytes32",
          "name": "newAdminRole",
          "type": "bytes32"
        }
      ],
      "name": "RoleAdminChanged",
      "type": "event"
    },
    {
      "anonymous": false,
      "inputs": [
        {
          "indexed": true,
          "internalType": "bytes32",
          "name": "role",
          "type": "bytes32"
        },
        {
          "indexed": true,
          "internalType": "address",
          "name": "account",
          "type": "address"
        },
        {
          "indexed": true,
          "internalType": "address",
          "name": "sender",
          "type": "address"
        }
      ],
      "name": "RoleGranted",
      "type": "event"
    },
    {
      "anonymous": false,
      "inputs": [
        {
          "indexed": true,
          "internalType": "bytes32",
          "name": "role",
          "type": "bytes32"
        },
        {
          "indexed": true,
          "internalType": "address",
          "name": "account",
          "type": "address"
        },
        {
          "indexed": true,
          "internalType": "address",
          "name": "sender",
          "type": "address"
        }
      ],
      "name": "RoleRevoked",
      "type": "event"
    },
    {
      "anonymous": false,
      "inputs": [
        {
          "indexed": true,
          "internalType": "address",
          "name": "creator",
          "type": "address"
        },
        {
          "indexed": false,
          "internalType": "bytes32",
          "name": "role",
          "type": "bytes32"
        },
        {
          "indexed": false,
          "internalType": "string",
          "name": "message",
          "type": "string"
        },
        {
          "indexed": true,
          "internalType": "address",
          "name": "beneficiary",
          "type": "address"
        },
        {
          "indexed": false,
          "internalType": "uint256",
          "name": "amount",
          "type": "uint256"
        },
        {
          "indexed": false,
          "internalType": "uint256",
          "name": "upVote",
          "type": "uint256"
        },
        {
          "indexed": false,
          "internalType": "uint256",
          "name": "downVotes",
          "type": "uint256"
        },
        {
          "indexed": false,
          "internalType": "bool",
          "name": "chosen",
          "type": "bool"
        }
      ],
      "name": "VoteAction",
      "type": "event"
    },
    {
      "inputs": [],
      "name": "DEFAULT_ADMIN_ROLE",
      "outputs": [
        {
          "internalType": "bytes32",
          "name": "",
          "type": "bytes32"
        }
      ],
      "stateMutability": "view",
      "type": "function"
    },
    {
      "inputs": [],
      "name": "contribute",
      "outputs": [
        {
          "internalType": "uint256",
          "name": "",
          "type": "uint256"
        }
      ],
      "stateMutability": "payable",
      "type": "function"
    },
    {
      "inputs": [
        {
          "internalType": "string",
          "name": "title",
          "type": "string"
        },
        {
          "internalType": "string",
          "name": "description",
          "type": "string"
        },
        {
          "internalType": "address",
          "name": "beneficiary",
          "type": "address"
        },
        {
          "internalType": "uint256",
          "name": "amount",
          "type": "uint256"
        }
      ],
      "name": "createProposal",
      "outputs": [
        {
          "components": [
            {
              "internalType": "uint256",
              "name": "id",
              "type": "uint256"
            },
            {
              "internalType": "uint256",
              "name": "amount",
              "type": "uint256"
            },
            {
              "internalType": "uint256",
              "name": "upVote",
              "type": "uint256"
            },
            {
              "internalType": "uint256",
              "name": "downVotes",
              "type": "uint256"
            },
            {
              "internalType": "uint256",
              "name": "duration",
              "type": "uint256"
            },
            {
              "internalType": "string",
              "name": "title",
              "type": "string"
            },
            {
              "internalType": "string",
              "name": "description",
              "type": "string"
            },
            {
              "internalType": "bool",
              "name": "paid",
              "type": "bool"
            },
            {
              "internalType": "bool",
              "name": "passed",
              "type": "bool"
            },
            {
              "internalType": "address payable",
              "name": "beneficiary",
              "type": "address"
            },
            {
              "internalType": "address",
              "name": "propoper",
              "type": "address"
            },
            {
              "internalType": "address",
              "name": "executor",
              "type": "address"
            }
          ],
          "internalType": "struct Dao.Proposals",
          "name": "",
          "type": "tuple"
        }
      ],
      "stateMutability": "nonpayable",
      "type": "function"
    },
    {
      "inputs": [],
      "name": "getAllProposals",
      "outputs": [
        {
          "components": [
            {
              "internalType": "uint256",
              "name": "id",
              "type": "uint256"
            },
            {
              "internalType": "uint256",
              "name": "amount",
              "type": "uint256"
            },
            {
              "internalType": "uint256",
              "name": "upVote",
              "type": "uint256"
            },
            {
              "internalType": "uint256",
              "name": "downVotes",
              "type": "uint256"
            },
            {
              "internalType": "uint256",
              "name": "duration",
              "type": "uint256"
            },
            {
              "internalType": "string",
              "name": "title",
              "type": "string"
            },
            {
              "internalType": "string",
              "name": "description",
              "type": "string"
            },
            {
              "internalType": "bool",
              "name": "paid",
              "type": "bool"
            },
            {
              "internalType": "bool",
              "name": "passed",
              "type": "bool"
            },
            {
              "internalType": "address payable",
              "name": "beneficiary",
              "type": "address"
            },
            {
              "internalType": "address",
              "name": "propoper",
              "type": "address"
            },
            {
              "internalType": "address",
              "name": "executor",
              "type": "address"
            }
          ],
          "internalType": "struct Dao.Proposals[]",
          "name": "props",
          "type": "tuple[]"
        }
      ],
      "stateMutability": "view",
      "type": "function"
    },
    {
      "inputs": [],
      "name": "getContributorsBalance",
      "outputs": [
        {
          "internalType": "uint256",
          "name": "",
          "type": "uint256"
        }
      ],
      "stateMutability": "view",
      "type": "function"
    },
    {
      "inputs": [],
      "name": "getDeployer",
      "outputs": [
        {
          "internalType": "address",
          "name": "",
          "type": "address"
        }
      ],
      "stateMutability": "view",
      "type": "function"
    },
    {
      "inputs": [
        {
          "internalType": "uint256",
          "name": "proposalID",
          "type": "uint256"
        }
      ],
      "name": "getProposalVote",
      "outputs": [
        {
          "components": [
            {
              "internalType": "address",
              "name": "voter",
              "type": "address"
            },
            {
              "internalType": "uint256",
              "name": "timestamp",
              "type": "uint256"
            },
            {
              "internalType": "bool",
              "name": "chosen",
              "type": "bool"
            }
          ],
          "internalType": "struct Dao.Voted[]",
          "name": "",
          "type": "tuple[]"
        }
      ],
      "stateMutability": "view",
      "type": "function"
    },
    {
      "inputs": [
        {
          "internalType": "uint256",
          "name": "proposalID",
          "type": "uint256"
        }
      ],
      "name": "getProposals",
      "outputs": [
        {
          "components": [
            {
              "internalType": "uint256",
              "name": "id",
              "type": "uint256"
            },
            {
              "internalType": "uint256",
              "name": "amount",
              "type": "uint256"
            },
            {
              "internalType": "uint256",
              "name": "upVote",
              "type": "uint256"
            },
            {
              "internalType": "uint256",
              "name": "downVotes",
              "type": "uint256"
            },
            {
              "internalType": "uint256",
              "name": "duration",
              "type": "uint256"
            },
            {
              "internalType": "string",
              "name": "title",
              "type": "string"
            },
            {
              "internalType": "string",
              "name": "description",
              "type": "string"
            },
            {
              "internalType": "bool",
              "name": "paid",
              "type": "bool"
            },
            {
              "internalType": "bool",
              "name": "passed",
              "type": "bool"
            },
            {
              "internalType": "address payable",
              "name": "beneficiary",
              "type": "address"
            },
            {
              "internalType": "address",
              "name": "propoper",
              "type": "address"
            },
            {
              "internalType": "address",
              "name": "executor",
              "type": "address"
            }
          ],
          "internalType": "struct Dao.Proposals",
          "name": "",
          "type": "tuple"
        }
      ],
      "stateMutability": "view",
      "type": "function"
    },
    {
      "inputs": [
        {
          "internalType": "bytes32",
          "name": "role",
          "type": "bytes32"
        }
      ],
      "name": "getRoleAdmin",
      "outputs": [
        {
          "internalType": "bytes32",
          "name": "",
          "type": "bytes32"
        }
      ],
      "stateMutability": "view",
      "type": "function"
    },
    {
      "inputs": [],
      "name": "getStakeholdersBalances",
      "outputs": [
        {
          "internalType": "uint256",
          "name": "",
          "type": "uint256"
        }
      ],
      "stateMutability": "view",
      "type": "function"
    },
    {
      "inputs": [],
      "name": "getStakeholdersVotes",
      "outputs": [
        {
          "internalType": "uint256[]",
          "name": "",
          "type": "uint256[]"
        }
      ],
      "stateMutability": "view",
      "type": "function"
    },
    {
      "inputs": [],
      "name": "getTotalBalance",
      "outputs": [
        {
          "internalType": "uint256",
          "name": "",
          "type": "uint256"
        }
      ],
      "stateMutability": "view",
      "type": "function"
    },
    {
      "inputs": [
        {
          "internalType": "bytes32",
          "name": "role",
          "type": "bytes32"
        },
        {
          "internalType": "address",
          "name": "account",
          "type": "address"
        }
      ],
      "name": "grantRole",
      "outputs": [],
      "stateMutability": "nonpayable",
      "type": "function"
    },
    {
      "inputs": [
        {
          "internalType": "bytes32",
          "name": "role",
          "type": "bytes32"
        },
        {
          "internalType": "address",
          "name": "account",
          "type": "address"
        }
      ],
      "name": "hasRole",
      "outputs": [
        {
          "internalType": "bool",
          "name": "",
          "type": "bool"
        }
      ],
      "stateMutability": "view",
      "type": "function"
    },
    {
      "inputs": [],
      "name": "isContributor",
      "outputs": [
        {
          "internalType": "bool",
          "name": "",
          "type": "bool"
        }
      ],
      "stateMutability": "view",
      "type": "function"
    },
    {
      "inputs": [
        {
          "internalType": "uint256",
          "name": "proposalId",
          "type": "uint256"
        }
      ],
      "name": "payBeneficiary",
      "outputs": [
        {
          "internalType": "uint256",
          "name": "",
          "type": "uint256"
        }
      ],
      "stateMutability": "nonpayable",
      "type": "function"
    },
    {
      "inputs": [
        {
          "internalType": "uint256",
          "name": "proposalId",
          "type": "uint256"
        },
        {
          "internalType": "bool",
          "name": "chosen",
          "type": "bool"
        }
      ],
      "name": "performVote",
      "outputs": [
        {
          "components": [
            {
              "internalType": "address",
              "name": "voter",
              "type": "address"
            },
            {
              "internalType": "uint256",
              "name": "timestamp",
              "type": "uint256"
            },
            {
              "internalType": "bool",
              "name": "chosen",
              "type": "bool"
            }
          ],
          "internalType": "struct Dao.Voted",
          "name": "",
          "type": "tuple"
        }
      ],
      "stateMutability": "nonpayable",
      "type": "function"
    },
    {
      "inputs": [
        {
          "internalType": "bytes32",
          "name": "role",
          "type": "bytes32"
        },
        {
          "internalType": "address",
          "name": "account",
          "type": "address"
        }
      ],
      "name": "renounceRole",
      "outputs": [],
      "stateMutability": "nonpayable",
      "type": "function"
    },
    {
      "inputs": [
        {
          "internalType": "bytes32",
          "name": "role",
          "type": "bytes32"
        },
        {
          "internalType": "address",
          "name": "account",
          "type": "address"
        }
      ],
      "name": "revokeRole",
      "outputs": [],
      "stateMutability": "nonpayable",
      "type": "function"
    },
    {
      "inputs": [],
      "name": "stakeholderStatus",
      "outputs": [
        {
          "internalType": "bool",
          "name": "",
          "type": "bool"
        }
      ],
      "stateMutability": "view",
      "type": "function"
    },
    {
      "inputs": [
        {
          "internalType": "bytes4",
          "name": "interfaceId",
          "type": "bytes4"
        }
      ],
      "name": "supportsInterface",
      "outputs": [
        {
          "internalType": "bool",
          "name": "",
          "type": "bool"
        }
      ],
      "stateMutability": "view",
      "type": "function"
    }
  ],
  "transactionHash": "0x6332bf85888751d1f67292c59e27fb5251d198d83540fc861951fb09abdc0cb3",
  "args": [],
  "numDeployments": 2,
  "solcInputHash": "3df3b5642c57dcf9e0abffb974acd22e",
  "bytecode": "0x61010060405267016345785d8a000060809081525061012c60a0908152507fd3cd73767648ee32815639d235132b56387142ddb995e593e7f0b0db442a7d4860c0908152507f193aaa92f8a12e564bc860f8d10b1c1f937927ff6a6e804d359875acec3e5a5a60e09081525034801561007757600080fd5b506001808190555033600460006101000a81548173ffffffffffffffffffffffffffffffffffffffff021916908373ffffffffffffffffffffffffffffffffffffffff16021790555060805160a05160c05160e05161407a61014d600039600081816105cd0152818161092f01528181610dae01528181610f2f015281816110cb0152818161152d015281816117ba01528181611c3b01528181611d7901528181611f6b015261202f0152600081816113e801528181611da30152611e280152600061104801526000611cb5015261407a6000f3fe60806040526004361061012a5760003560e01c80637cdc2eb7116100ab578063cceb68f51161006f578063cceb68f514610440578063d547741f1461046b578063d6cc801614610494578063d7bb99ba146104bf578063f43327d2146104dd578063ff4b0db7146105085761012a565b80637cdc2eb71461033357806383047f801461037057806391d148541461039b578063a217fddf146103d8578063b31f111c146104035761012a565b80632c72fdfc116100f25780632c72fdfc1461024e5780632f2ff15d1461028b578063341edbed146102b457806336568abe146102df57806372630531146103085761012a565b806301ffc9a71461012f578063119c37c81461016c57806312b58349146101a95780631c9b2f35146101d4578063248a9ca314610211575b600080fd5b34801561013b57600080fd5b5061015660048036038101906101519190612af9565b610533565b6040516101639190612b41565b60405180910390f35b34801561017857600080fd5b50610193600480360381019061018e9190612b92565b6105ad565b6040516101a09190612bce565b60405180910390f35b3480156101b557600080fd5b506101be61097e565b6040516101cb9190612bce565b60405180910390f35b3480156101e057600080fd5b506101fb60048036038101906101f69190612b92565b610988565b6040516102089190612d39565b60405180910390f35b34801561021d57600080fd5b5061023860048036038101906102339190612d91565b610a75565b6040516102459190612dcd565b60405180910390f35b34801561025a57600080fd5b5061027560048036038101906102709190612b92565b610a94565b6040516102829190612fad565b60405180910390f35b34801561029757600080fd5b506102b260048036038101906102ad9190612ffb565b610d50565b005b3480156102c057600080fd5b506102c9610d71565b6040516102d69190612bce565b60405180910390f35b3480156102eb57600080fd5b5061030660048036038101906103019190612ffb565b610e5c565b005b34801561031457600080fd5b5061031d610edf565b60405161032a919061304a565b60405180910390f35b34801561033f57600080fd5b5061035a600480360381019061035591906130ca565b610f09565b6040516103679190612fad565b60405180910390f35b34801561037c57600080fd5b506103856113ab565b6040516103929190612bce565b60405180910390f35b3480156103a757600080fd5b506103c260048036038101906103bd9190612ffb565b611496565b6040516103cf9190612b41565b60405180910390f35b3480156103e457600080fd5b506103ed611500565b6040516103fa9190612dcd565b60405180910390f35b34801561040f57600080fd5b5061042a6004803603810190610425919061319d565b611507565b604051610437919061321f565b60405180910390f35b34801561044c57600080fd5b5061045561183f565b6040516104629190613407565b60405180910390f35b34801561047757600080fd5b50610492600480360381019061048d9190612ffb565b611b88565b005b3480156104a057600080fd5b506104a9611ba9565b6040516104b69190612b41565b60405180910390f35b6104c7611bf2565b6040516104d49190612bce565b60405180910390f35b3480156104e957600080fd5b506104f2611fa9565b6040516104ff9190612b41565b60405180910390f35b34801561051457600080fd5b5061051d611ff2565b60405161052a91906134d8565b60405180910390f35b60007f7965db0b000000000000000000000000000000000000000000000000000000007bffffffffffffffffffffffffffffffffffffffffffffffffffffffff1916827bffffffffffffffffffffffffffffffffffffffffffffffffffffffff191614806105a657506105a58261212b565b5b9050919050565b6000604051806060016040528060228152602001613ff2602291396105f27f000000000000000000000000000000000000000000000000000000000000000033611496565b8190610634576040517f08c379a000000000000000000000000000000000000000000000000000000000815260040161062b9190613544565b60405180910390fd5b506040518060400160405280601e81526020017f4f6e6c79206465706c6f7965722063616e206d616b65207061796d656e740000815250600460009054906101000a900473ffffffffffffffffffffffffffffffffffffffff1673ffffffffffffffffffffffffffffffffffffffff163373ffffffffffffffffffffffffffffffffffffffff161481906106fe576040517f08c379a00000000000000000000000000000000000000000000000000000000081526004016106f59190613544565b60405180910390fd5b50610707612195565b600060056000868152602001908152602001600020905080600101546003541015610767576040517f08c379a000000000000000000000000000000000000000000000000000000000815260040161075e906135b2565b60405180910390fd5b600115158160070160009054906101000a900460ff16151514156107c0576040517f08c379a00000000000000000000000000000000000000000000000000000000081526004016107b79061361e565b60405180910390fd5b806003015481600201541161080a576040517f08c379a00000000000000000000000000000000000000000000000000000000081526004016108019061368a565b60405180910390fd5b61083c81600101548260070160029054906101000a900473ffffffffffffffffffffffffffffffffffffffff166121e5565b5060018160070160006101000a81548160ff021916908315150217905550338160090160006101000a81548173ffffffffffffffffffffffffffffffffffffffff021916908373ffffffffffffffffffffffffffffffffffffffff1602179055508060010154600360008282546108b391906136d9565b925050819055508060070160029054906101000a900473ffffffffffffffffffffffffffffffffffffffff1673ffffffffffffffffffffffffffffffffffffffff163373ffffffffffffffffffffffffffffffffffffffff167f73a1cb60f50f2e728bc99e4885df312cacdf69558d195a114a0e37d2836696a37f00000000000000000000000000000000000000000000000000000000000000008460010154604051610961929190613759565b60405180910390a360035493505061097761229d565b5050919050565b6000600354905090565b606060076000838152602001908152602001600020805480602002602001604051908101604052809291908181526020016000905b82821015610a6a57838290600052602060002090600302016040518060600160405290816000820160009054906101000a900473ffffffffffffffffffffffffffffffffffffffff1673ffffffffffffffffffffffffffffffffffffffff1673ffffffffffffffffffffffffffffffffffffffff168152602001600182015481526020016002820160009054906101000a900460ff161515151581525050815260200190600101906109bd565b505050509050919050565b6000806000838152602001908152602001600020600101549050919050565b610a9c612914565b60056000838152602001908152602001600020604051806101800160405290816000820154815260200160018201548152602001600282015481526020016003820154815260200160048201548152602001600582018054610afd906137c4565b80601f0160208091040260200160405190810160405280929190818152602001828054610b29906137c4565b8015610b765780601f10610b4b57610100808354040283529160200191610b76565b820191906000526020600020905b815481529060010190602001808311610b5957829003601f168201915b50505050508152602001600682018054610b8f906137c4565b80601f0160208091040260200160405190810160405280929190818152602001828054610bbb906137c4565b8015610c085780601f10610bdd57610100808354040283529160200191610c08565b820191906000526020600020905b815481529060010190602001808311610beb57829003601f168201915b505050505081526020016007820160009054906101000a900460ff161515151581526020016007820160019054906101000a900460ff161515151581526020016007820160029054906101000a900473ffffffffffffffffffffffffffffffffffffffff1673ffffffffffffffffffffffffffffffffffffffff1673ffffffffffffffffffffffffffffffffffffffff1681526020016008820160009054906101000a900473ffffffffffffffffffffffffffffffffffffffff1673ffffffffffffffffffffffffffffffffffffffff1673ffffffffffffffffffffffffffffffffffffffff1681526020016009820160009054906101000a900473ffffffffffffffffffffffffffffffffffffffff1673ffffffffffffffffffffffffffffffffffffffff1673ffffffffffffffffffffffffffffffffffffffff16815250509050919050565b610d5982610a75565b610d62816122a6565b610d6c83836122ba565b505050565b60006040518060400160405280600c81526020017f756e617574686f72697a65640000000000000000000000000000000000000000815250610dd37f000000000000000000000000000000000000000000000000000000000000000033611496565b8190610e15576040517f08c379a0000000000000000000000000000000000000000000000000000000008152600401610e0c9190613544565b60405180910390fd5b50600960003373ffffffffffffffffffffffffffffffffffffffff1673ffffffffffffffffffffffffffffffffffffffff1681526020019081526020016000205491505090565b610e6461239a565b73ffffffffffffffffffffffffffffffffffffffff168173ffffffffffffffffffffffffffffffffffffffff1614610ed1576040517f08c379a0000000000000000000000000000000000000000000000000000000008152600401610ec890613868565b60405180910390fd5b610edb82826123a2565b5050565b6000600460009054906101000a900473ffffffffffffffffffffffffffffffffffffffff16905090565b610f11612914565b60405180606001604052806031815260200161401460319139610f547f000000000000000000000000000000000000000000000000000000000000000033611496565b8190610f96576040517f08c379a0000000000000000000000000000000000000000000000000000000008152600401610f8d9190613544565b60405180910390fd5b50600060026000815480929190610fac90613888565b91905055905060006005600083815260200190815260200160002090508181600001819055508481600101819055508989826005019190610fee9291906129bb565b5087878260060191906110029291906129bb565b50858160070160026101000a81548173ffffffffffffffffffffffffffffffffffffffff021916908373ffffffffffffffffffffffffffffffffffffffff1602179055507f00000000000000000000000000000000000000000000000000000000000000004261107291906138d1565b81600401819055508573ffffffffffffffffffffffffffffffffffffffff163373ffffffffffffffffffffffffffffffffffffffff167f73a1cb60f50f2e728bc99e4885df312cacdf69558d195a114a0e37d2836696a37f0000000000000000000000000000000000000000000000000000000000000000886040516110f9929190613973565b60405180910390a380604051806101800160405290816000820154815260200160018201548152602001600282015481526020016003820154815260200160048201548152602001600582018054611150906137c4565b80601f016020809104026020016040519081016040528092919081815260200182805461117c906137c4565b80156111c95780601f1061119e576101008083540402835291602001916111c9565b820191906000526020600020905b8154815290600101906020018083116111ac57829003601f168201915b505050505081526020016006820180546111e2906137c4565b80601f016020809104026020016040519081016040528092919081815260200182805461120e906137c4565b801561125b5780601f106112305761010080835404028352916020019161125b565b820191906000526020600020905b81548152906001019060200180831161123e57829003601f168201915b505050505081526020016007820160009054906101000a900460ff161515151581526020016007820160019054906101000a900460ff161515151581526020016007820160029054906101000a900473ffffffffffffffffffffffffffffffffffffffff1673ffffffffffffffffffffffffffffffffffffffff1673ffffffffffffffffffffffffffffffffffffffff1681526020016008820160009054906101000a900473ffffffffffffffffffffffffffffffffffffffff1673ffffffffffffffffffffffffffffffffffffffff1673ffffffffffffffffffffffffffffffffffffffff1681526020016009820160009054906101000a900473ffffffffffffffffffffffffffffffffffffffff1673ffffffffffffffffffffffffffffffffffffffff1673ffffffffffffffffffffffffffffffffffffffff168152505093505050509695505050505050565b60006040518060400160405280600b81526020017f756e6174686f72697a656400000000000000000000000000000000000000000081525061140d7f000000000000000000000000000000000000000000000000000000000000000033611496565b819061144f576040517f08c379a00000000000000000000000000000000000000000000000000000000081526004016114469190613544565b60405180910390fd5b50600860003373ffffffffffffffffffffffffffffffffffffffff1673ffffffffffffffffffffffffffffffffffffffff1681526020019081526020016000205491505090565b600080600084815260200190815260200160002060000160008373ffffffffffffffffffffffffffffffffffffffff1673ffffffffffffffffffffffffffffffffffffffff16815260200190815260200160002060009054906101000a900460ff16905092915050565b6000801b81565b61150f612a41565b604051806060016040528060248152602001613fce602491396115527f000000000000000000000000000000000000000000000000000000000000000033611496565b8190611594576040517f08c379a000000000000000000000000000000000000000000000000000000000815260040161158b9190613544565b60405180910390fd5b5060006005600086815260200190815260200160002090506115b581612483565b83156115da578060020160008154809291906115d090613888565b91905055506115f5565b8060030160008154809291906115ef90613888565b91905055505b600660003373ffffffffffffffffffffffffffffffffffffffff1673ffffffffffffffffffffffffffffffffffffffff16815260200190815260200160002081600001549080600181540180825580915050600190039060005260206000200160009091909190915055600760008260000154815260200190815260200160002060405180606001604052803373ffffffffffffffffffffffffffffffffffffffff168152602001428152602001861515815250908060018154018082558091505060019003906000526020600020906003020160009091909190915060008201518160000160006101000a81548173ffffffffffffffffffffffffffffffffffffffff021916908373ffffffffffffffffffffffffffffffffffffffff1602179055506020820151816001015560408201518160020160006101000a81548160ff02191690831515021790555050508060070160029054906101000a900473ffffffffffffffffffffffffffffffffffffffff1673ffffffffffffffffffffffffffffffffffffffff163373ffffffffffffffffffffffffffffffffffffffff167f547e0c985508bf44e88e036a89b60fb24d98f87250028cb1b4f9991ab734e6957f00000000000000000000000000000000000000000000000000000000000000008460010154856002015486600301548a6040516117fa9594939291906139fb565b60405180910390a360405180606001604052803373ffffffffffffffffffffffffffffffffffffffff1681526020014281526020018515158152509250505092915050565b606060025467ffffffffffffffff81111561185d5761185c613a61565b5b60405190808252806020026020018201604052801561189657816020015b611883612914565b81526020019060019003908161187b5790505b50905060005b600254811015611b845760056000828152602001908152602001600020604051806101800160405290816000820154815260200160018201548152602001600282015481526020016003820154815260200160048201548152602001600582018054611907906137c4565b80601f0160208091040260200160405190810160405280929190818152602001828054611933906137c4565b80156119805780601f1061195557610100808354040283529160200191611980565b820191906000526020600020905b81548152906001019060200180831161196357829003601f168201915b50505050508152602001600682018054611999906137c4565b80601f01602080910402602001604051908101604052809291908181526020018280546119c5906137c4565b8015611a125780601f106119e757610100808354040283529160200191611a12565b820191906000526020600020905b8154815290600101906020018083116119f557829003601f168201915b505050505081526020016007820160009054906101000a900460ff161515151581526020016007820160019054906101000a900460ff161515151581526020016007820160029054906101000a900473ffffffffffffffffffffffffffffffffffffffff1673ffffffffffffffffffffffffffffffffffffffff1673ffffffffffffffffffffffffffffffffffffffff1681526020016008820160009054906101000a900473ffffffffffffffffffffffffffffffffffffffff1673ffffffffffffffffffffffffffffffffffffffff1673ffffffffffffffffffffffffffffffffffffffff1681526020016009820160009054906101000a900473ffffffffffffffffffffffffffffffffffffffff1673ffffffffffffffffffffffffffffffffffffffff1673ffffffffffffffffffffffffffffffffffffffff1681525050828281518110611b6657611b65613a90565b5b60200260200101819052508080611b7c90613888565b91505061189c565b5090565b611b9182610a75565b611b9a816122a6565b611ba483836123a2565b505050565b600080600860003373ffffffffffffffffffffffffffffffffffffffff1673ffffffffffffffffffffffffffffffffffffffff1681526020019081526020016000205411905090565b6000803411611c36576040517f08c379a0000000000000000000000000000000000000000000000000000000008152600401611c2d90613b0b565b60405180910390fd5b611c607f000000000000000000000000000000000000000000000000000000000000000033611496565b611e5457600034600860003373ffffffffffffffffffffffffffffffffffffffff1673ffffffffffffffffffffffffffffffffffffffff16815260200190815260200160002054611cb191906138d1565b90507f00000000000000000000000000000000000000000000000000000000000000008110611dcd5734600960003373ffffffffffffffffffffffffffffffffffffffff1673ffffffffffffffffffffffffffffffffffffffff1681526020019081526020016000208190555034600860003373ffffffffffffffffffffffffffffffffffffffff1673ffffffffffffffffffffffffffffffffffffffff1681526020019081526020016000206000828254611d6d91906138d1565b92505081905550611d9e7f000000000000000000000000000000000000000000000000000000000000000033612618565b611dc87f000000000000000000000000000000000000000000000000000000000000000033612618565b611e4e565b34600860003373ffffffffffffffffffffffffffffffffffffffff1673ffffffffffffffffffffffffffffffffffffffff1681526020019081526020016000206000828254611e1c91906138d1565b92505081905550611e4d7f000000000000000000000000000000000000000000000000000000000000000033612618565b5b50611f01565b34600960003373ffffffffffffffffffffffffffffffffffffffff1673ffffffffffffffffffffffffffffffffffffffff1681526020019081526020016000206000828254611ea391906138d1565b9250508190555034600860003373ffffffffffffffffffffffffffffffffffffffff1673ffffffffffffffffffffffffffffffffffffffff1681526020019081526020016000206000828254611ef991906138d1565b925050819055505b3460036000828254611f1391906138d1565b925050819055503073ffffffffffffffffffffffffffffffffffffffff163373ffffffffffffffffffffffffffffffffffffffff167f73a1cb60f50f2e728bc99e4885df312cacdf69558d195a114a0e37d2836696a37f000000000000000000000000000000000000000000000000000000000000000034604051611f99929190613b9d565b60405180910390a3600354905090565b600080600960003373ffffffffffffffffffffffffffffffffffffffff1673ffffffffffffffffffffffffffffffffffffffff1681526020019081526020016000205411905090565b60606040518060400160405280600c81526020017f556e617574686f72697a656400000000000000000000000000000000000000008152506120547f000000000000000000000000000000000000000000000000000000000000000033611496565b8190612096576040517f08c379a000000000000000000000000000000000000000000000000000000000815260040161208d9190613544565b60405180910390fd5b50600660003373ffffffffffffffffffffffffffffffffffffffff1673ffffffffffffffffffffffffffffffffffffffff16815260200190815260200160002080548060200260200160405190810160405280929190818152602001828054801561212057602002820191906000526020600020905b81548152602001906001019080831161210c575b505050505091505090565b60007f01ffc9a7000000000000000000000000000000000000000000000000000000007bffffffffffffffffffffffffffffffffffffffffffffffffffffffff1916827bffffffffffffffffffffffffffffffffffffffffffffffffffffffff1916149050919050565b600260015414156121db576040517f08c379a00000000000000000000000000000000000000000000000000000000081526004016121d290613c25565b60405180910390fd5b6002600181905550565b6000808273ffffffffffffffffffffffffffffffffffffffff168460405161220c90613c76565b60006040518083038185875af1925050503d8060008114612249576040519150601f19603f3d011682016040523d82523d6000602084013e61224e565b606091505b5050905080612292576040517f08c379a000000000000000000000000000000000000000000000000000000000815260040161228990613cd7565b60405180910390fd5b600191505092915050565b60018081905550565b6122b7816122b261239a565b612626565b50565b6122c48282611496565b61239657600160008084815260200190815260200160002060000160008373ffffffffffffffffffffffffffffffffffffffff1673ffffffffffffffffffffffffffffffffffffffff16815260200190815260200160002060006101000a81548160ff02191690831515021790555061233b61239a565b73ffffffffffffffffffffffffffffffffffffffff168173ffffffffffffffffffffffffffffffffffffffff16837f2f8788117e7eff1d82e926ec794901d17c78024a50270940304540a733656f0d60405160405180910390a45b5050565b600033905090565b6123ac8282611496565b1561247f57600080600084815260200190815260200160002060000160008373ffffffffffffffffffffffffffffffffffffffff1673ffffffffffffffffffffffffffffffffffffffff16815260200190815260200160002060006101000a81548160ff02191690831515021790555061242461239a565b73ffffffffffffffffffffffffffffffffffffffff168173ffffffffffffffffffffffffffffffffffffffff16837ff6391f5c32d9c69d2a47ea670b442974b53935d1edc7fd64eb21e047a839171b60405160405180910390a45b5050565b8060070160019054906101000a900460ff16806124a4575042816004015411155b156125015760018160070160016101000a81548160ff0219169083151502179055506040517f08c379a00000000000000000000000000000000000000000000000000000000081526004016124f890613d43565b60405180910390fd5b6000600660003373ffffffffffffffffffffffffffffffffffffffff1673ffffffffffffffffffffffffffffffffffffffff16815260200190815260200160002080548060200260200160405190810160405280929190818152602001828054801561258c57602002820191906000526020600020905b815481526020019060010190808311612578575b5050505050905060005b8151811015612613578181815181106125b2576125b1613a90565b5b602002602001015183600001541415612600576040517f08c379a00000000000000000000000000000000000000000000000000000000081526004016125f790613daf565b60405180910390fd5b808061260b90613888565b915050612596565b505050565b61262282826122ba565b5050565b6126308282611496565b6126a75761263d816126ab565b61264b8360001c60206126d8565b60405160200161265c929190613ea3565b6040516020818303038152906040526040517f08c379a000000000000000000000000000000000000000000000000000000000815260040161269e9190613544565b60405180910390fd5b5050565b60606126d18273ffffffffffffffffffffffffffffffffffffffff16601460ff166126d8565b9050919050565b6060600060028360026126eb9190613edd565b6126f591906138d1565b67ffffffffffffffff81111561270e5761270d613a61565b5b6040519080825280601f01601f1916602001820160405280156127405781602001600182028036833780820191505090505b5090507f30000000000000000000000000000000000000000000000000000000000000008160008151811061277857612777613a90565b5b60200101907effffffffffffffffffffffffffffffffffffffffffffffffffffffffffffff1916908160001a9053507f7800000000000000000000000000000000000000000000000000000000000000816001815181106127dc576127db613a90565b5b60200101907effffffffffffffffffffffffffffffffffffffffffffffffffffffffffffff1916908160001a9053506000600184600261281c9190613edd565b61282691906138d1565b90505b60018111156128c6577f3031323334353637383961626364656600000000000000000000000000000000600f86166010811061286857612867613a90565b5b1a60f81b82828151811061287f5761287e613a90565b5b60200101907effffffffffffffffffffffffffffffffffffffffffffffffffffffffffffff1916908160001a905350600485901c9450806128bf90613f37565b9050612829565b506000841461290a576040517f08c379a000000000000000000000000000000000000000000000000000000000815260040161290190613fad565b60405180910390fd5b8091505092915050565b60405180610180016040528060008152602001600081526020016000815260200160008152602001600081526020016060815260200160608152602001600015158152602001600015158152602001600073ffffffffffffffffffffffffffffffffffffffff168152602001600073ffffffffffffffffffffffffffffffffffffffff168152602001600073ffffffffffffffffffffffffffffffffffffffff1681525090565b8280546129c7906137c4565b90600052602060002090601f0160209004810192826129e95760008555612a30565b82601f10612a0257803560ff1916838001178555612a30565b82800160010185558215612a30579182015b82811115612a2f578235825591602001919060010190612a14565b5b509050612a3d9190612a7a565b5090565b6040518060600160405280600073ffffffffffffffffffffffffffffffffffffffff168152602001600081526020016000151581525090565b5b80821115612a93576000816000905550600101612a7b565b5090565b600080fd5b600080fd5b60007fffffffff0000000000000000000000000000000000000000000000000000000082169050919050565b612ad681612aa1565b8114612ae157600080fd5b50565b600081359050612af381612acd565b92915050565b600060208284031215612b0f57612b0e612a97565b5b6000612b1d84828501612ae4565b91505092915050565b60008115159050919050565b612b3b81612b26565b82525050565b6000602082019050612b566000830184612b32565b92915050565b6000819050919050565b612b6f81612b5c565b8114612b7a57600080fd5b50565b600081359050612b8c81612b66565b92915050565b600060208284031215612ba857612ba7612a97565b5b6000612bb684828501612b7d565b91505092915050565b612bc881612b5c565b82525050565b6000602082019050612be36000830184612bbf565b92915050565b600081519050919050565b600082825260208201905092915050565b6000819050602082019050919050565b600073ffffffffffffffffffffffffffffffffffffffff82169050919050565b6000612c4082612c15565b9050919050565b612c5081612c35565b82525050565b612c5f81612b5c565b82525050565b612c6e81612b26565b82525050565b606082016000820151612c8a6000850182612c47565b506020820151612c9d6020850182612c56565b506040820151612cb06040850182612c65565b50505050565b6000612cc28383612c74565b60608301905092915050565b6000602082019050919050565b6000612ce682612be9565b612cf08185612bf4565b9350612cfb83612c05565b8060005b83811015612d2c578151612d138882612cb6565b9750612d1e83612cce565b925050600181019050612cff565b5085935050505092915050565b60006020820190508181036000830152612d538184612cdb565b905092915050565b6000819050919050565b612d6e81612d5b565b8114612d7957600080fd5b50565b600081359050612d8b81612d65565b92915050565b600060208284031215612da757612da6612a97565b5b6000612db584828501612d7c565b91505092915050565b612dc781612d5b565b82525050565b6000602082019050612de26000830184612dbe565b92915050565b600081519050919050565b600082825260208201905092915050565b60005b83811015612e22578082015181840152602081019050612e07565b83811115612e31576000848401525b50505050565b6000601f19601f8301169050919050565b6000612e5382612de8565b612e5d8185612df3565b9350612e6d818560208601612e04565b612e7681612e37565b840191505092915050565b6000612e8c82612c15565b9050919050565b612e9c81612e81565b82525050565b600061018083016000830151612ebb6000860182612c56565b506020830151612ece6020860182612c56565b506040830151612ee16040860182612c56565b506060830151612ef46060860182612c56565b506080830151612f076080860182612c56565b5060a083015184820360a0860152612f1f8282612e48565b91505060c083015184820360c0860152612f398282612e48565b91505060e0830151612f4e60e0860182612c65565b50610100830151612f63610100860182612c65565b50610120830151612f78610120860182612e93565b50610140830151612f8d610140860182612c47565b50610160830151612fa2610160860182612c47565b508091505092915050565b60006020820190508181036000830152612fc78184612ea2565b905092915050565b612fd881612c35565b8114612fe357600080fd5b50565b600081359050612ff581612fcf565b92915050565b6000806040838503121561301257613011612a97565b5b600061302085828601612d7c565b925050602061303185828601612fe6565b9150509250929050565b61304481612c35565b82525050565b600060208201905061305f600083018461303b565b92915050565b600080fd5b600080fd5b600080fd5b60008083601f84011261308a57613089613065565b5b8235905067ffffffffffffffff8111156130a7576130a661306a565b5b6020830191508360018202830111156130c3576130c261306f565b5b9250929050565b600080600080600080608087890312156130e7576130e6612a97565b5b600087013567ffffffffffffffff81111561310557613104612a9c565b5b61311189828a01613074565b9650965050602087013567ffffffffffffffff81111561313457613133612a9c565b5b61314089828a01613074565b9450945050604061315389828a01612fe6565b925050606061316489828a01612b7d565b9150509295509295509295565b61317a81612b26565b811461318557600080fd5b50565b60008135905061319781613171565b92915050565b600080604083850312156131b4576131b3612a97565b5b60006131c285828601612b7d565b92505060206131d385828601613188565b9150509250929050565b6060820160008201516131f36000850182612c47565b5060208201516132066020850182612c56565b5060408201516132196040850182612c65565b50505050565b600060608201905061323460008301846131dd565b92915050565b600081519050919050565b600082825260208201905092915050565b6000819050602082019050919050565b60006101808301600083015161327f6000860182612c56565b5060208301516132926020860182612c56565b5060408301516132a56040860182612c56565b5060608301516132b86060860182612c56565b5060808301516132cb6080860182612c56565b5060a083015184820360a08601526132e38282612e48565b91505060c083015184820360c08601526132fd8282612e48565b91505060e083015161331260e0860182612c65565b50610100830151613327610100860182612c65565b5061012083015161333c610120860182612e93565b50610140830151613351610140860182612c47565b50610160830151613366610160860182612c47565b508091505092915050565b600061337d8383613266565b905092915050565b6000602082019050919050565b600061339d8261323a565b6133a78185613245565b9350836020820285016133b985613256565b8060005b858110156133f557848403895281516133d68582613371565b94506133e183613385565b925060208a019950506001810190506133bd565b50829750879550505050505092915050565b600060208201905081810360008301526134218184613392565b905092915050565b600081519050919050565b600082825260208201905092915050565b6000819050602082019050919050565b60006134618383612c56565b60208301905092915050565b6000602082019050919050565b600061348582613429565b61348f8185613434565b935061349a83613445565b8060005b838110156134cb5781516134b28882613455565b97506134bd8361346d565b92505060018101905061349e565b5085935050505092915050565b600060208201905081810360008301526134f2818461347a565b905092915050565b600082825260208201905092915050565b600061351682612de8565b61352081856134fa565b9350613530818560208601612e04565b61353981612e37565b840191505092915050565b6000602082019050818103600083015261355e818461350b565b905092915050565b7f696e73756666696369656e742066756e64000000000000000000000000000000600082015250565b600061359c6011836134fa565b91506135a782613566565b602082019050919050565b600060208201905081810360008301526135cb8161358f565b9050919050565b7f7061796d656e7420616c7265616479206d616465000000000000000000000000600082015250565b60006136086014836134fa565b9150613613826135d2565b602082019050919050565b60006020820190508181036000830152613637816135fb565b9050919050565b7f696e73756666696369656e7420766f7465730000000000000000000000000000600082015250565b60006136746012836134fa565b915061367f8261363e565b602082019050919050565b600060208201905081810360008301526136a381613667565b9050919050565b7f4e487b7100000000000000000000000000000000000000000000000000000000600052601160045260246000fd5b60006136e482612b5c565b91506136ef83612b5c565b925082821015613702576137016136aa565b5b828203905092915050565b7f5041594d454e54205355434345535346554c4c59204d41444521000000000000600082015250565b6000613743601a836134fa565b915061374e8261370d565b602082019050919050565b600060608201905061376e6000830185612dbe565b818103602083015261377f81613736565b905061378e6040830184612bbf565b9392505050565b7f4e487b7100000000000000000000000000000000000000000000000000000000600052602260045260246000fd5b600060028204905060018216806137dc57607f821691505b602082108114156137f0576137ef613795565b5b50919050565b7f416363657373436f6e74726f6c3a2063616e206f6e6c792072656e6f756e636560008201527f20726f6c657320666f722073656c660000000000000000000000000000000000602082015250565b6000613852602f836134fa565b915061385d826137f6565b604082019050919050565b6000602082019050818103600083015261388181613845565b9050919050565b600061389382612b5c565b91507fffffffffffffffffffffffffffffffffffffffffffffffffffffffffffffffff8214156138c6576138c56136aa565b5b600182019050919050565b60006138dc82612b5c565b91506138e783612b5c565b9250827fffffffffffffffffffffffffffffffffffffffffffffffffffffffffffffffff0382111561391c5761391b6136aa565b5b828201905092915050565b7f50726f706f73616c205261697365640000000000000000000000000000000000600082015250565b600061395d600f836134fa565b915061396882613927565b602082019050919050565b60006060820190506139886000830185612dbe565b818103602083015261399981613950565b90506139a86040830184612bbf565b9392505050565b7f50524f504f53414c20564f544500000000000000000000000000000000000000600082015250565b60006139e5600d836134fa565b91506139f0826139af565b602082019050919050565b600060c082019050613a106000830188612dbe565b8181036020830152613a21816139d8565b9050613a306040830187612bbf565b613a3d6060830186612bbf565b613a4a6080830185612bbf565b613a5760a0830184612b32565b9695505050505050565b7f4e487b7100000000000000000000000000000000000000000000000000000000600052604160045260246000fd5b7f4e487b7100000000000000000000000000000000000000000000000000000000600052603260045260246000fd5b7f696e76616c696420616d6f756e74000000000000000000000000000000000000600082015250565b6000613af5600e836134fa565b9150613b0082613abf565b602082019050919050565b60006020820190508181036000830152613b2481613ae8565b9050919050565b7f434f4e545249425554494f4e205355434345535346554c4c592052454345495660008201527f4544210000000000000000000000000000000000000000000000000000000000602082015250565b6000613b876023836134fa565b9150613b9282613b2b565b604082019050919050565b6000606082019050613bb26000830185612dbe565b8181036020830152613bc381613b7a565b9050613bd26040830184612bbf565b9392505050565b7f5265656e7472616e637947756172643a207265656e7472616e742063616c6c00600082015250565b6000613c0f601f836134fa565b9150613c1a82613bd9565b602082019050919050565b60006020820190508181036000830152613c3e81613c02565b9050919050565b600081905092915050565b50565b6000613c60600083613c45565b9150613c6b82613c50565b600082019050919050565b6000613c8182613c53565b9150819050919050565b7f7061796d656e74206661696c6564000000000000000000000000000000000000600082015250565b6000613cc1600e836134fa565b9150613ccc82613c8b565b602082019050919050565b60006020820190508181036000830152613cf081613cb4565b9050919050565b7f54696d652068617320616c726561647920706173736564000000000000000000600082015250565b6000613d2d6017836134fa565b9150613d3882613cf7565b602082019050919050565b60006020820190508181036000830152613d5c81613d20565b9050919050565b7f646f75626c6520766f74696e67206973206e6f7420616c6c6f77656400000000600082015250565b6000613d99601c836134fa565b9150613da482613d63565b602082019050919050565b60006020820190508181036000830152613dc881613d8c565b9050919050565b600081905092915050565b7f416363657373436f6e74726f6c3a206163636f756e7420000000000000000000600082015250565b6000613e10601783613dcf565b9150613e1b82613dda565b601782019050919050565b6000613e3182612de8565b613e3b8185613dcf565b9350613e4b818560208601612e04565b80840191505092915050565b7f206973206d697373696e6720726f6c6520000000000000000000000000000000600082015250565b6000613e8d601183613dcf565b9150613e9882613e57565b601182019050919050565b6000613eae82613e03565b9150613eba8285613e26565b9150613ec582613e80565b9150613ed18284613e26565b91508190509392505050565b6000613ee882612b5c565b9150613ef383612b5c565b9250817fffffffffffffffffffffffffffffffffffffffffffffffffffffffffffffffff0483118215151615613f2c57613f2b6136aa565b5b828202905092915050565b6000613f4282612b5c565b91506000821415613f5657613f556136aa565b5b600182039050919050565b7f537472696e67733a20686578206c656e67746820696e73756666696369656e74600082015250565b6000613f976020836134fa565b9150613fa282613f61565b602082019050919050565b60006020820190508181036000830152613fc681613f8a565b905091905056fe4f6e6c79207374616b65686f6c646572732063616e20706572666f726d20766f74696e674f6e6c79207374616b65686f6c646572732063616e206d616b65207061796d656e744f6e6c79207374616b65686f6c646572732061726520616c6c6f77656420746f206372656174652050726f706f73616c73a26469706673582212208811c47dd94e6d7fde982725388789875800e978c9c4bc9e56762d227349422164736f6c63430008090033",
  "devdoc": {
    "kind": "dev",
    "methods": {
      "getRoleAdmin(bytes32)": {
        "details": "Returns the admin role that controls `role`. See {grantRole} and {revokeRole}. To change a role's admin, use {_setRoleAdmin}."
      },
      "grantRole(bytes32,address)": {
        "details": "Grants `role` to `account`. If `account` had not been already granted `role`, emits a {RoleGranted} event. Requirements: - the caller must have ``role``'s admin role. May emit a {RoleGranted} event."
      },
      "hasRole(bytes32,address)": {
        "details": "Returns `true` if `account` has been granted `role`."
      },
      "renounceRole(bytes32,address)": {
        "details": "Revokes `role` from the calling account. Roles are often managed via {grantRole} and {revokeRole}: this function's purpose is to provide a mechanism for accounts to lose their privileges if they are compromised (such as when a trusted device is misplaced). If the calling account had been revoked `role`, emits a {RoleRevoked} event. Requirements: - the caller must be `account`. May emit a {RoleRevoked} event."
      },
      "revokeRole(bytes32,address)": {
        "details": "Revokes `role` from `account`. If `account` had been granted `role`, emits a {RoleRevoked} event. Requirements: - the caller must have ``role``'s admin role. May emit a {RoleRevoked} event."
      },
      "supportsInterface(bytes4)": {
        "details": "See {IERC165-supportsInterface}."
      }
    },
    "version": 1
  },
  "userdoc": {
    "kind": "user",
    "methods": {},
    "version": 1
  },
  "storageLayout": {
    "storage": [
      {
        "astId": 24,
        "contract": "contracts/DAO.sol:Dao",
        "label": "_roles",
        "offset": 0,
        "slot": "0",
        "type": "t_mapping(t_bytes32,t_struct(RoleData)19_storage)"
      },
      {
        "astId": 399,
        "contract": "contracts/DAO.sol:Dao",
        "label": "_status",
        "offset": 0,
        "slot": "1",
        "type": "t_uint256"
      },
      {
        "astId": 1550,
        "contract": "contracts/DAO.sol:Dao",
        "label": "totalProposals",
        "offset": 0,
        "slot": "2",
        "type": "t_uint256"
      },
      {
        "astId": 1552,
        "contract": "contracts/DAO.sol:Dao",
        "label": "balance",
        "offset": 0,
        "slot": "3",
        "type": "t_uint256"
      },
      {
        "astId": 1554,
        "contract": "contracts/DAO.sol:Dao",
        "label": "deployer",
        "offset": 0,
        "slot": "4",
        "type": "t_address"
      },
      {
        "astId": 1575,
        "contract": "contracts/DAO.sol:Dao",
        "label": "raisedProposals",
        "offset": 0,
        "slot": "5",
        "type": "t_mapping(t_uint256,t_struct(Proposals)1649_storage)"
      },
      {
        "astId": 1580,
        "contract": "contracts/DAO.sol:Dao",
        "label": "stakeholderVotes",
        "offset": 0,
        "slot": "6",
        "type": "t_mapping(t_address,t_array(t_uint256)dyn_storage)"
      },
      {
        "astId": 1586,
        "contract": "contracts/DAO.sol:Dao",
        "label": "votedOn",
        "offset": 0,
        "slot": "7",
        "type": "t_mapping(t_uint256,t_array(t_struct(Voted)1656_storage)dyn_storage)"
      },
      {
        "astId": 1590,
        "contract": "contracts/DAO.sol:Dao",
        "label": "contributors",
        "offset": 0,
        "slot": "8",
        "type": "t_mapping(t_address,t_uint256)"
      },
      {
        "astId": 1594,
        "contract": "contracts/DAO.sol:Dao",
        "label": "stakeholders",
        "offset": 0,
        "slot": "9",
        "type": "t_mapping(t_address,t_uint256)"
      }
    ],
    "types": {
      "t_address": {
        "encoding": "inplace",
        "label": "address",
        "numberOfBytes": "20"
      },
      "t_address_payable": {
        "encoding": "inplace",
        "label": "address payable",
        "numberOfBytes": "20"
      },
      "t_array(t_struct(Voted)1656_storage)dyn_storage": {
        "base": "t_struct(Voted)1656_storage",
        "encoding": "dynamic_array",
        "label": "struct Dao.Voted[]",
        "numberOfBytes": "32"
      },
      "t_array(t_uint256)dyn_storage": {
        "base": "t_uint256",
        "encoding": "dynamic_array",
        "label": "uint256[]",
        "numberOfBytes": "32"
      },
      "t_bool": {
        "encoding": "inplace",
        "label": "bool",
        "numberOfBytes": "1"
      },
      "t_bytes32": {
        "encoding": "inplace",
        "label": "bytes32",
        "numberOfBytes": "32"
      },
      "t_mapping(t_address,t_array(t_uint256)dyn_storage)": {
        "encoding": "mapping",
        "key": "t_address",
        "label": "mapping(address => uint256[])",
        "numberOfBytes": "32",
        "value": "t_array(t_uint256)dyn_storage"
      },
      "t_mapping(t_address,t_bool)": {
        "encoding": "mapping",
        "key": "t_address",
        "label": "mapping(address => bool)",
        "numberOfBytes": "32",
        "value": "t_bool"
      },
      "t_mapping(t_address,t_uint256)": {
        "encoding": "mapping",
        "key": "t_address",
        "label": "mapping(address => uint256)",
        "numberOfBytes": "32",
        "value": "t_uint256"
      },
      "t_mapping(t_bytes32,t_struct(RoleData)19_storage)": {
        "encoding": "mapping",
        "key": "t_bytes32",
        "label": "mapping(bytes32 => struct AccessControl.RoleData)",
        "numberOfBytes": "32",
        "value": "t_struct(RoleData)19_storage"
      },
      "t_mapping(t_uint256,t_array(t_struct(Voted)1656_storage)dyn_storage)": {
        "encoding": "mapping",
        "key": "t_uint256",
        "label": "mapping(uint256 => struct Dao.Voted[])",
        "numberOfBytes": "32",
        "value": "t_array(t_struct(Voted)1656_storage)dyn_storage"
      },
      "t_mapping(t_uint256,t_struct(Proposals)1649_storage)": {
        "encoding": "mapping",
        "key": "t_uint256",
        "label": "mapping(uint256 => struct Dao.Proposals)",
        "numberOfBytes": "32",
        "value": "t_struct(Proposals)1649_storage"
      },
      "t_string_storage": {
        "encoding": "bytes",
        "label": "string",
        "numberOfBytes": "32"
      },
      "t_struct(Proposals)1649_storage": {
        "encoding": "inplace",
        "label": "struct Dao.Proposals",
        "members": [
          {
            "astId": 1626,
            "contract": "contracts/DAO.sol:Dao",
            "label": "id",
            "offset": 0,
            "slot": "0",
            "type": "t_uint256"
          },
          {
            "astId": 1628,
            "contract": "contracts/DAO.sol:Dao",
            "label": "amount",
            "offset": 0,
            "slot": "1",
            "type": "t_uint256"
          },
          {
            "astId": 1630,
            "contract": "contracts/DAO.sol:Dao",
            "label": "upVote",
            "offset": 0,
            "slot": "2",
            "type": "t_uint256"
          },
          {
            "astId": 1632,
            "contract": "contracts/DAO.sol:Dao",
            "label": "downVotes",
            "offset": 0,
            "slot": "3",
            "type": "t_uint256"
          },
          {
            "astId": 1634,
            "contract": "contracts/DAO.sol:Dao",
            "label": "duration",
            "offset": 0,
            "slot": "4",
            "type": "t_uint256"
          },
          {
            "astId": 1636,
            "contract": "contracts/DAO.sol:Dao",
            "label": "title",
            "offset": 0,
            "slot": "5",
            "type": "t_string_storage"
          },
          {
            "astId": 1638,
            "contract": "contracts/DAO.sol:Dao",
            "label": "description",
            "offset": 0,
            "slot": "6",
            "type": "t_string_storage"
          },
          {
            "astId": 1640,
            "contract": "contracts/DAO.sol:Dao",
            "label": "paid",
            "offset": 0,
            "slot": "7",
            "type": "t_bool"
          },
          {
            "astId": 1642,
            "contract": "contracts/DAO.sol:Dao",
            "label": "passed",
            "offset": 1,
            "slot": "7",
            "type": "t_bool"
          },
          {
            "astId": 1644,
            "contract": "contracts/DAO.sol:Dao",
            "label": "beneficiary",
            "offset": 2,
            "slot": "7",
            "type": "t_address_payable"
          },
          {
            "astId": 1646,
            "contract": "contracts/DAO.sol:Dao",
            "label": "propoper",
            "offset": 0,
            "slot": "8",
            "type": "t_address"
          },
          {
            "astId": 1648,
            "contract": "contracts/DAO.sol:Dao",
            "label": "executor",
            "offset": 0,
            "slot": "9",
            "type": "t_address"
          }
        ],
        "numberOfBytes": "320"
      },
      "t_struct(RoleData)19_storage": {
        "encoding": "inplace",
        "label": "struct AccessControl.RoleData",
        "members": [
          {
            "astId": 16,
            "contract": "contracts/DAO.sol:Dao",
            "label": "members",
            "offset": 0,
            "slot": "0",
            "type": "t_mapping(t_address,t_bool)"
          },
          {
            "astId": 18,
            "contract": "contracts/DAO.sol:Dao",
            "label": "adminRole",
            "offset": 0,
            "slot": "1",
            "type": "t_bytes32"
          }
        ],
        "numberOfBytes": "64"
      },
      "t_struct(Voted)1656_storage": {
        "encoding": "inplace",
        "label": "struct Dao.Voted",
        "members": [
          {
            "astId": 1651,
            "contract": "contracts/DAO.sol:Dao",
            "label": "voter",
            "offset": 0,
            "slot": "0",
            "type": "t_address"
          },
          {
            "astId": 1653,
            "contract": "contracts/DAO.sol:Dao",
            "label": "timestamp",
            "offset": 0,
            "slot": "1",
            "type": "t_uint256"
          },
          {
            "astId": 1655,
            "contract": "contracts/DAO.sol:Dao",
            "label": "chosen",
            "offset": 0,
            "slot": "2",
            "type": "t_bool"
          }
        ],
        "numberOfBytes": "96"
      },
      "t_uint256": {
        "encoding": "inplace",
        "label": "uint256",
        "numberOfBytes": "32"
      }
    }
  }
}