{
  "address": "0x5FbDB2315678afecb367f032d93F642f64180aa3",
  "abi": [
    {
      "anonymous": false,
      "inputs": [
        {
          "indexed": true,
          "internalType": "address",
          "name": "creator",
          "type": "address"
        },
        {
          "indexed": false,
          "internalType": "bytes32",
          "name": "role",
          "type": "bytes32"
        },
        {
          "indexed": false,
          "internalType": "string",
          "name": "message",
          "type": "string"
        },
        {
          "indexed": true,
          "internalType": "address",
          "name": "beneficiary",
          "type": "address"
        },
        {
          "indexed": false,
          "internalType": "uint256",
          "name": "amount",
          "type": "uint256"
        }
      ],
      "name": "ProposalAction",
      "type": "event"
    },
    {
      "anonymous": false,
      "inputs": [
        {
          "indexed": true,
          "internalType": "bytes32",
          "name": "role",
          "type": "bytes32"
        },
        {
          "indexed": true,
          "internalType": "bytes32",
          "name": "previousAdminRole",
          "type": "bytes32"
        },
        {
          "indexed": true,
          "internalType": "bytes32",
          "name": "newAdminRole",
          "type": "bytes32"
        }
      ],
      "name": "RoleAdminChanged",
      "type": "event"
    },
    {
      "anonymous": false,
      "inputs": [
        {
          "indexed": true,
          "internalType": "bytes32",
          "name": "role",
          "type": "bytes32"
        },
        {
          "indexed": true,
          "internalType": "address",
          "name": "account",
          "type": "address"
        },
        {
          "indexed": true,
          "internalType": "address",
          "name": "sender",
          "type": "address"
        }
      ],
      "name": "RoleGranted",
      "type": "event"
    },
    {
      "anonymous": false,
      "inputs": [
        {
          "indexed": true,
          "internalType": "bytes32",
          "name": "role",
          "type": "bytes32"
        },
        {
          "indexed": true,
          "internalType": "address",
          "name": "account",
          "type": "address"
        },
        {
          "indexed": true,
          "internalType": "address",
          "name": "sender",
          "type": "address"
        }
      ],
      "name": "RoleRevoked",
      "type": "event"
    },
    {
      "anonymous": false,
      "inputs": [
        {
          "indexed": true,
          "internalType": "address",
          "name": "creator",
          "type": "address"
        },
        {
          "indexed": false,
          "internalType": "bytes32",
          "name": "role",
          "type": "bytes32"
        },
        {
          "indexed": false,
          "internalType": "string",
          "name": "message",
          "type": "string"
        },
        {
          "indexed": true,
          "internalType": "address",
          "name": "beneficiary",
          "type": "address"
        },
        {
          "indexed": false,
          "internalType": "uint256",
          "name": "amount",
          "type": "uint256"
        },
        {
          "indexed": false,
          "internalType": "uint256",
          "name": "upVote",
          "type": "uint256"
        },
        {
          "indexed": false,
          "internalType": "uint256",
          "name": "downVotes",
          "type": "uint256"
        },
        {
          "indexed": false,
          "internalType": "bool",
          "name": "chosen",
          "type": "bool"
        }
      ],
      "name": "VoteAction",
      "type": "event"
    },
    {
      "inputs": [],
      "name": "DEFAULT_ADMIN_ROLE",
      "outputs": [
        {
          "internalType": "bytes32",
          "name": "",
          "type": "bytes32"
        }
      ],
      "stateMutability": "view",
      "type": "function"
    },
    {
      "inputs": [],
      "name": "contribute",
      "outputs": [
        {
          "internalType": "uint256",
          "name": "",
          "type": "uint256"
        }
      ],
      "stateMutability": "payable",
      "type": "function"
    },
    {
      "inputs": [
        {
          "internalType": "string",
          "name": "title",
          "type": "string"
        },
        {
          "internalType": "string",
          "name": "description",
          "type": "string"
        },
        {
          "internalType": "address",
          "name": "beneficiary",
          "type": "address"
        },
        {
          "internalType": "uint256",
          "name": "amount",
          "type": "uint256"
        }
      ],
      "name": "createProposal",
      "outputs": [
        {
          "components": [
            {
              "internalType": "uint256",
              "name": "id",
              "type": "uint256"
            },
            {
              "internalType": "uint256",
              "name": "amount",
              "type": "uint256"
            },
            {
              "internalType": "uint256",
              "name": "upVote",
              "type": "uint256"
            },
            {
              "internalType": "uint256",
              "name": "downVotes",
              "type": "uint256"
            },
            {
              "internalType": "uint256",
              "name": "duration",
              "type": "uint256"
            },
            {
              "internalType": "string",
              "name": "title",
              "type": "string"
            },
            {
              "internalType": "string",
              "name": "description",
              "type": "string"
            },
            {
              "internalType": "bool",
              "name": "paid",
              "type": "bool"
            },
            {
              "internalType": "bool",
              "name": "passed",
              "type": "bool"
            },
            {
              "internalType": "address payable",
              "name": "beneficiary",
              "type": "address"
            },
            {
              "internalType": "address",
              "name": "propoper",
              "type": "address"
            },
            {
              "internalType": "address",
              "name": "executor",
              "type": "address"
            }
          ],
          "internalType": "struct Dao.Proposals",
          "name": "",
          "type": "tuple"
        }
      ],
      "stateMutability": "nonpayable",
      "type": "function"
    },
    {
      "inputs": [],
      "name": "getAllProposals",
      "outputs": [
        {
          "components": [
            {
              "internalType": "uint256",
              "name": "id",
              "type": "uint256"
            },
            {
              "internalType": "uint256",
              "name": "amount",
              "type": "uint256"
            },
            {
              "internalType": "uint256",
              "name": "upVote",
              "type": "uint256"
            },
            {
              "internalType": "uint256",
              "name": "downVotes",
              "type": "uint256"
            },
            {
              "internalType": "uint256",
              "name": "duration",
              "type": "uint256"
            },
            {
              "internalType": "string",
              "name": "title",
              "type": "string"
            },
            {
              "internalType": "string",
              "name": "description",
              "type": "string"
            },
            {
              "internalType": "bool",
              "name": "paid",
              "type": "bool"
            },
            {
              "internalType": "bool",
              "name": "passed",
              "type": "bool"
            },
            {
              "internalType": "address payable",
              "name": "beneficiary",
              "type": "address"
            },
            {
              "internalType": "address",
              "name": "propoper",
              "type": "address"
            },
            {
              "internalType": "address",
              "name": "executor",
              "type": "address"
            }
          ],
          "internalType": "struct Dao.Proposals[]",
          "name": "props",
          "type": "tuple[]"
        }
      ],
      "stateMutability": "view",
      "type": "function"
    },
    {
      "inputs": [],
      "name": "getContributorsBalance",
      "outputs": [
        {
          "internalType": "uint256",
          "name": "",
          "type": "uint256"
        }
      ],
      "stateMutability": "view",
      "type": "function"
    },
    {
      "inputs": [
        {
          "internalType": "uint256",
          "name": "proposalID",
          "type": "uint256"
        }
      ],
      "name": "getProposalVote",
      "outputs": [
        {
          "components": [
            {
              "internalType": "address",
              "name": "voter",
              "type": "address"
            },
            {
              "internalType": "uint256",
              "name": "timestamp",
              "type": "uint256"
            },
            {
              "internalType": "bool",
              "name": "chosen",
              "type": "bool"
            }
          ],
          "internalType": "struct Dao.Voted[]",
          "name": "",
          "type": "tuple[]"
        }
      ],
      "stateMutability": "view",
      "type": "function"
    },
    {
      "inputs": [
        {
          "internalType": "uint256",
          "name": "proposalID",
          "type": "uint256"
        }
      ],
      "name": "getProposals",
      "outputs": [
        {
          "components": [
            {
              "internalType": "uint256",
              "name": "id",
              "type": "uint256"
            },
            {
              "internalType": "uint256",
              "name": "amount",
              "type": "uint256"
            },
            {
              "internalType": "uint256",
              "name": "upVote",
              "type": "uint256"
            },
            {
              "internalType": "uint256",
              "name": "downVotes",
              "type": "uint256"
            },
            {
              "internalType": "uint256",
              "name": "duration",
              "type": "uint256"
            },
            {
              "internalType": "string",
              "name": "title",
              "type": "string"
            },
            {
              "internalType": "string",
              "name": "description",
              "type": "string"
            },
            {
              "internalType": "bool",
              "name": "paid",
              "type": "bool"
            },
            {
              "internalType": "bool",
              "name": "passed",
              "type": "bool"
            },
            {
              "internalType": "address payable",
              "name": "beneficiary",
              "type": "address"
            },
            {
              "internalType": "address",
              "name": "propoper",
              "type": "address"
            },
            {
              "internalType": "address",
              "name": "executor",
              "type": "address"
            }
          ],
          "internalType": "struct Dao.Proposals",
          "name": "",
          "type": "tuple"
        }
      ],
      "stateMutability": "view",
      "type": "function"
    },
    {
      "inputs": [
        {
          "internalType": "bytes32",
          "name": "role",
          "type": "bytes32"
        }
      ],
      "name": "getRoleAdmin",
      "outputs": [
        {
          "internalType": "bytes32",
          "name": "",
          "type": "bytes32"
        }
      ],
      "stateMutability": "view",
      "type": "function"
    },
    {
      "inputs": [],
      "name": "getStakeholdersBalances",
      "outputs": [
        {
          "internalType": "uint256",
          "name": "",
          "type": "uint256"
        }
      ],
      "stateMutability": "view",
      "type": "function"
    },
    {
      "inputs": [],
      "name": "getStakeholdersVotes",
      "outputs": [
        {
          "internalType": "uint256[]",
          "name": "",
          "type": "uint256[]"
        }
      ],
      "stateMutability": "view",
      "type": "function"
    },
    {
      "inputs": [],
      "name": "getTotalBalance",
      "outputs": [
        {
          "internalType": "uint256",
          "name": "",
          "type": "uint256"
        }
      ],
      "stateMutability": "view",
      "type": "function"
    },
    {
      "inputs": [
        {
          "internalType": "bytes32",
          "name": "role",
          "type": "bytes32"
        },
        {
          "internalType": "address",
          "name": "account",
          "type": "address"
        }
      ],
      "name": "grantRole",
      "outputs": [],
      "stateMutability": "nonpayable",
      "type": "function"
    },
    {
      "inputs": [
        {
          "internalType": "bytes32",
          "name": "role",
          "type": "bytes32"
        },
        {
          "internalType": "address",
          "name": "account",
          "type": "address"
        }
      ],
      "name": "hasRole",
      "outputs": [
        {
          "internalType": "bool",
          "name": "",
          "type": "bool"
        }
      ],
      "stateMutability": "view",
      "type": "function"
    },
    {
      "inputs": [],
      "name": "isContributor",
      "outputs": [
        {
          "internalType": "bool",
          "name": "",
          "type": "bool"
        }
      ],
      "stateMutability": "view",
      "type": "function"
    },
    {
      "inputs": [
        {
          "internalType": "uint256",
          "name": "proposalId",
          "type": "uint256"
        }
      ],
      "name": "payBeneficiary",
      "outputs": [
        {
          "internalType": "uint256",
          "name": "",
          "type": "uint256"
        }
      ],
      "stateMutability": "nonpayable",
      "type": "function"
    },
    {
      "inputs": [
        {
          "internalType": "uint256",
          "name": "proposalId",
          "type": "uint256"
        },
        {
          "internalType": "bool",
          "name": "chosen",
          "type": "bool"
        }
      ],
      "name": "performVote",
      "outputs": [
        {
          "components": [
            {
              "internalType": "address",
              "name": "voter",
              "type": "address"
            },
            {
              "internalType": "uint256",
              "name": "timestamp",
              "type": "uint256"
            },
            {
              "internalType": "bool",
              "name": "chosen",
              "type": "bool"
            }
          ],
          "internalType": "struct Dao.Voted",
          "name": "",
          "type": "tuple"
        }
      ],
      "stateMutability": "nonpayable",
      "type": "function"
    },
    {
      "inputs": [
        {
          "internalType": "bytes32",
          "name": "role",
          "type": "bytes32"
        },
        {
          "internalType": "address",
          "name": "account",
          "type": "address"
        }
      ],
      "name": "renounceRole",
      "outputs": [],
      "stateMutability": "nonpayable",
      "type": "function"
    },
    {
      "inputs": [
        {
          "internalType": "bytes32",
          "name": "role",
          "type": "bytes32"
        },
        {
          "internalType": "address",
          "name": "account",
          "type": "address"
        }
      ],
      "name": "revokeRole",
      "outputs": [],
      "stateMutability": "nonpayable",
      "type": "function"
    },
    {
      "inputs": [],
      "name": "stakeholderStatus",
      "outputs": [
        {
          "internalType": "bool",
          "name": "",
          "type": "bool"
        }
      ],
      "stateMutability": "view",
      "type": "function"
    },
    {
      "inputs": [
        {
          "internalType": "bytes4",
          "name": "interfaceId",
          "type": "bytes4"
        }
      ],
      "name": "supportsInterface",
      "outputs": [
        {
          "internalType": "bool",
          "name": "",
          "type": "bool"
        }
      ],
      "stateMutability": "view",
      "type": "function"
    }
  ],
  "transactionHash": "0xbed86789d3591031a9e5b1a15d9497fecbf6f18555eb072dbaaf132eca0443c8",
  "args": [],
  "numDeployments": 1,
  "solcInputHash": "e830cc4fc978506e4506c12d5584e230",
  "bytecode": "0x610100604052670de0b6b3a764000060809081525061012c60a0908152507fd3cd73767648ee32815639d235132b56387142ddb995e593e7f0b0db442a7d4860c0908152507f193aaa92f8a12e564bc860f8d10b1c1f937927ff6a6e804d359875acec3e5a5a60e09081525034801561007757600080fd5b506001808190555060805160a05160c05160e051613f2561010c600039600081816105970152818161082f01528181610cad01528181610e0401528181610fa0015281816114020152818161168f01528181611b1001528181611c4e01528181611e400152611f040152600081816112bd01528181611c780152611cfd01526000610f1d01526000611b8a0152613f256000f3fe60806040526004361061011f5760003560e01c806383047f80116100a0578063d547741f11610064578063d547741f14610435578063d6cc80161461045e578063d7bb99ba14610489578063f43327d2146104a7578063ff4b0db7146104d25761011f565b806383047f801461033a57806391d1485414610365578063a217fddf146103a2578063b31f111c146103cd578063cceb68f51461040a5761011f565b80632c72fdfc116100e75780632c72fdfc146102435780632f2ff15d14610280578063341edbed146102a957806336568abe146102d45780637cdc2eb7146102fd5761011f565b806301ffc9a714610124578063119c37c81461016157806312b583491461019e5780631c9b2f35146101c9578063248a9ca314610206575b600080fd5b34801561013057600080fd5b5061014b600480360381019061014691906129ce565b6104fd565b6040516101589190612a16565b60405180910390f35b34801561016d57600080fd5b5061018860048036038101906101839190612a67565b610577565b6040516101959190612aa3565b60405180910390f35b3480156101aa57600080fd5b506101b361087d565b6040516101c09190612aa3565b60405180910390f35b3480156101d557600080fd5b506101f060048036038101906101eb9190612a67565b610887565b6040516101fd9190612c0e565b60405180910390f35b34801561021257600080fd5b5061022d60048036038101906102289190612c66565b610974565b60405161023a9190612ca2565b60405180910390f35b34801561024f57600080fd5b5061026a60048036038101906102659190612a67565b610993565b6040516102779190612e82565b60405180910390f35b34801561028c57600080fd5b506102a760048036038101906102a29190612ed0565b610c4f565b005b3480156102b557600080fd5b506102be610c70565b6040516102cb9190612aa3565b60405180910390f35b3480156102e057600080fd5b506102fb60048036038101906102f69190612ed0565b610d5b565b005b34801561030957600080fd5b50610324600480360381019061031f9190612f75565b610dde565b6040516103319190612e82565b60405180910390f35b34801561034657600080fd5b5061034f611280565b60405161035c9190612aa3565b60405180910390f35b34801561037157600080fd5b5061038c60048036038101906103879190612ed0565b61136b565b6040516103999190612a16565b60405180910390f35b3480156103ae57600080fd5b506103b76113d5565b6040516103c49190612ca2565b60405180910390f35b3480156103d957600080fd5b506103f460048036038101906103ef9190613048565b6113dc565b60405161040191906130ca565b60405180910390f35b34801561041657600080fd5b5061041f611714565b60405161042c91906132b2565b60405180910390f35b34801561044157600080fd5b5061045c60048036038101906104579190612ed0565b611a5d565b005b34801561046a57600080fd5b50610473611a7e565b6040516104809190612a16565b60405180910390f35b610491611ac7565b60405161049e9190612aa3565b60405180910390f35b3480156104b357600080fd5b506104bc611e7e565b6040516104c99190612a16565b60405180910390f35b3480156104de57600080fd5b506104e7611ec7565b6040516104f49190613383565b60405180910390f35b60007f7965db0b000000000000000000000000000000000000000000000000000000007bffffffffffffffffffffffffffffffffffffffffffffffffffffffff1916827bffffffffffffffffffffffffffffffffffffffffffffffffffffffff19161480610570575061056f82612000565b5b9050919050565b6000604051806060016040528060228152602001613e9d602291396105bc7f00000000000000000000000000000000000000000000000000000000000000003361136b565b81906105fe576040517f08c379a00000000000000000000000000000000000000000000000000000000081526004016105f591906133ef565b60405180910390fd5b5061060761206a565b600060046000858152602001908152602001600020905080600101546003541015610667576040517f08c379a000000000000000000000000000000000000000000000000000000000815260040161065e9061345d565b60405180910390fd5b600115158160070160009054906101000a900460ff16151514156106c0576040517f08c379a00000000000000000000000000000000000000000000000000000000081526004016106b7906134c9565b60405180910390fd5b806003015481600201541161070a576040517f08c379a000000000000000000000000000000000000000000000000000000000815260040161070190613535565b60405180910390fd5b61073c81600101548260070160029054906101000a900473ffffffffffffffffffffffffffffffffffffffff166120ba565b5060018160070160006101000a81548160ff021916908315150217905550338160090160006101000a81548173ffffffffffffffffffffffffffffffffffffffff021916908373ffffffffffffffffffffffffffffffffffffffff1602179055508060010154600360008282546107b39190613584565b925050819055508060070160029054906101000a900473ffffffffffffffffffffffffffffffffffffffff1673ffffffffffffffffffffffffffffffffffffffff163373ffffffffffffffffffffffffffffffffffffffff167f73a1cb60f50f2e728bc99e4885df312cacdf69558d195a114a0e37d2836696a37f00000000000000000000000000000000000000000000000000000000000000008460010154604051610861929190613604565b60405180910390a3600354925050610877612172565b50919050565b6000600354905090565b606060066000838152602001908152602001600020805480602002602001604051908101604052809291908181526020016000905b8282101561096957838290600052602060002090600302016040518060600160405290816000820160009054906101000a900473ffffffffffffffffffffffffffffffffffffffff1673ffffffffffffffffffffffffffffffffffffffff1673ffffffffffffffffffffffffffffffffffffffff168152602001600182015481526020016002820160009054906101000a900460ff161515151581525050815260200190600101906108bc565b505050509050919050565b6000806000838152602001908152602001600020600101549050919050565b61099b6127e9565b600460008381526020019081526020016000206040518061018001604052908160008201548152602001600182015481526020016002820154815260200160038201548152602001600482015481526020016005820180546109fc9061366f565b80601f0160208091040260200160405190810160405280929190818152602001828054610a289061366f565b8015610a755780601f10610a4a57610100808354040283529160200191610a75565b820191906000526020600020905b815481529060010190602001808311610a5857829003601f168201915b50505050508152602001600682018054610a8e9061366f565b80601f0160208091040260200160405190810160405280929190818152602001828054610aba9061366f565b8015610b075780601f10610adc57610100808354040283529160200191610b07565b820191906000526020600020905b815481529060010190602001808311610aea57829003601f168201915b505050505081526020016007820160009054906101000a900460ff161515151581526020016007820160019054906101000a900460ff161515151581526020016007820160029054906101000a900473ffffffffffffffffffffffffffffffffffffffff1673ffffffffffffffffffffffffffffffffffffffff1673ffffffffffffffffffffffffffffffffffffffff1681526020016008820160009054906101000a900473ffffffffffffffffffffffffffffffffffffffff1673ffffffffffffffffffffffffffffffffffffffff1673ffffffffffffffffffffffffffffffffffffffff1681526020016009820160009054906101000a900473ffffffffffffffffffffffffffffffffffffffff1673ffffffffffffffffffffffffffffffffffffffff1673ffffffffffffffffffffffffffffffffffffffff16815250509050919050565b610c5882610974565b610c618161217b565b610c6b838361218f565b505050565b60006040518060400160405280600c81526020017f756e617574686f72697a65640000000000000000000000000000000000000000815250610cd27f00000000000000000000000000000000000000000000000000000000000000003361136b565b8190610d14576040517f08c379a0000000000000000000000000000000000000000000000000000000008152600401610d0b91906133ef565b60405180910390fd5b50600860003373ffffffffffffffffffffffffffffffffffffffff1673ffffffffffffffffffffffffffffffffffffffff1681526020019081526020016000205491505090565b610d6361226f565b73ffffffffffffffffffffffffffffffffffffffff168173ffffffffffffffffffffffffffffffffffffffff1614610dd0576040517f08c379a0000000000000000000000000000000000000000000000000000000008152600401610dc790613713565b60405180910390fd5b610dda8282612277565b5050565b610de66127e9565b604051806060016040528060318152602001613ebf60319139610e297f00000000000000000000000000000000000000000000000000000000000000003361136b565b8190610e6b576040517f08c379a0000000000000000000000000000000000000000000000000000000008152600401610e6291906133ef565b60405180910390fd5b50600060026000815480929190610e8190613733565b91905055905060006004600083815260200190815260200160002090508181600001819055508481600101819055508989826005019190610ec3929190612890565b508787826006019190610ed7929190612890565b50858160070160026101000a81548173ffffffffffffffffffffffffffffffffffffffff021916908373ffffffffffffffffffffffffffffffffffffffff1602179055507f000000000000000000000000000000000000000000000000000000000000000042610f47919061377c565b81600401819055508573ffffffffffffffffffffffffffffffffffffffff163373ffffffffffffffffffffffffffffffffffffffff167f73a1cb60f50f2e728bc99e4885df312cacdf69558d195a114a0e37d2836696a37f000000000000000000000000000000000000000000000000000000000000000088604051610fce92919061381e565b60405180910390a3806040518061018001604052908160008201548152602001600182015481526020016002820154815260200160038201548152602001600482015481526020016005820180546110259061366f565b80601f01602080910402602001604051908101604052809291908181526020018280546110519061366f565b801561109e5780601f106110735761010080835404028352916020019161109e565b820191906000526020600020905b81548152906001019060200180831161108157829003601f168201915b505050505081526020016006820180546110b79061366f565b80601f01602080910402602001604051908101604052809291908181526020018280546110e39061366f565b80156111305780601f1061110557610100808354040283529160200191611130565b820191906000526020600020905b81548152906001019060200180831161111357829003601f168201915b505050505081526020016007820160009054906101000a900460ff161515151581526020016007820160019054906101000a900460ff161515151581526020016007820160029054906101000a900473ffffffffffffffffffffffffffffffffffffffff1673ffffffffffffffffffffffffffffffffffffffff1673ffffffffffffffffffffffffffffffffffffffff1681526020016008820160009054906101000a900473ffffffffffffffffffffffffffffffffffffffff1673ffffffffffffffffffffffffffffffffffffffff1673ffffffffffffffffffffffffffffffffffffffff1681526020016009820160009054906101000a900473ffffffffffffffffffffffffffffffffffffffff1673ffffffffffffffffffffffffffffffffffffffff1673ffffffffffffffffffffffffffffffffffffffff168152505093505050509695505050505050565b60006040518060400160405280600b81526020017f756e6174686f72697a65640000000000000000000000000000000000000000008152506112e27f00000000000000000000000000000000000000000000000000000000000000003361136b565b8190611324576040517f08c379a000000000000000000000000000000000000000000000000000000000815260040161131b91906133ef565b60405180910390fd5b50600760003373ffffffffffffffffffffffffffffffffffffffff1673ffffffffffffffffffffffffffffffffffffffff1681526020019081526020016000205491505090565b600080600084815260200190815260200160002060000160008373ffffffffffffffffffffffffffffffffffffffff1673ffffffffffffffffffffffffffffffffffffffff16815260200190815260200160002060009054906101000a900460ff16905092915050565b6000801b81565b6113e4612916565b604051806060016040528060248152602001613e79602491396114277f00000000000000000000000000000000000000000000000000000000000000003361136b565b8190611469576040517f08c379a000000000000000000000000000000000000000000000000000000000815260040161146091906133ef565b60405180910390fd5b50600060046000868152602001908152602001600020905061148a81612358565b83156114af578060020160008154809291906114a590613733565b91905055506114ca565b8060030160008154809291906114c490613733565b91905055505b600560003373ffffffffffffffffffffffffffffffffffffffff1673ffffffffffffffffffffffffffffffffffffffff16815260200190815260200160002081600001549080600181540180825580915050600190039060005260206000200160009091909190915055600660008260000154815260200190815260200160002060405180606001604052803373ffffffffffffffffffffffffffffffffffffffff168152602001428152602001861515815250908060018154018082558091505060019003906000526020600020906003020160009091909190915060008201518160000160006101000a81548173ffffffffffffffffffffffffffffffffffffffff021916908373ffffffffffffffffffffffffffffffffffffffff1602179055506020820151816001015560408201518160020160006101000a81548160ff02191690831515021790555050508060070160029054906101000a900473ffffffffffffffffffffffffffffffffffffffff1673ffffffffffffffffffffffffffffffffffffffff163373ffffffffffffffffffffffffffffffffffffffff167f547e0c985508bf44e88e036a89b60fb24d98f87250028cb1b4f9991ab734e6957f00000000000000000000000000000000000000000000000000000000000000008460010154856002015486600301548a6040516116cf9594939291906138a6565b60405180910390a360405180606001604052803373ffffffffffffffffffffffffffffffffffffffff1681526020014281526020018515158152509250505092915050565b606060025467ffffffffffffffff8111156117325761173161390c565b5b60405190808252806020026020018201604052801561176b57816020015b6117586127e9565b8152602001906001900390816117505790505b50905060005b600254811015611a5957600460008281526020019081526020016000206040518061018001604052908160008201548152602001600182015481526020016002820154815260200160038201548152602001600482015481526020016005820180546117dc9061366f565b80601f01602080910402602001604051908101604052809291908181526020018280546118089061366f565b80156118555780601f1061182a57610100808354040283529160200191611855565b820191906000526020600020905b81548152906001019060200180831161183857829003601f168201915b5050505050815260200160068201805461186e9061366f565b80601f016020809104026020016040519081016040528092919081815260200182805461189a9061366f565b80156118e75780601f106118bc576101008083540402835291602001916118e7565b820191906000526020600020905b8154815290600101906020018083116118ca57829003601f168201915b505050505081526020016007820160009054906101000a900460ff161515151581526020016007820160019054906101000a900460ff161515151581526020016007820160029054906101000a900473ffffffffffffffffffffffffffffffffffffffff1673ffffffffffffffffffffffffffffffffffffffff1673ffffffffffffffffffffffffffffffffffffffff1681526020016008820160009054906101000a900473ffffffffffffffffffffffffffffffffffffffff1673ffffffffffffffffffffffffffffffffffffffff1673ffffffffffffffffffffffffffffffffffffffff1681526020016009820160009054906101000a900473ffffffffffffffffffffffffffffffffffffffff1673ffffffffffffffffffffffffffffffffffffffff1673ffffffffffffffffffffffffffffffffffffffff1681525050828281518110611a3b57611a3a61393b565b5b60200260200101819052508080611a5190613733565b915050611771565b5090565b611a6682610974565b611a6f8161217b565b611a798383612277565b505050565b600080600760003373ffffffffffffffffffffffffffffffffffffffff1673ffffffffffffffffffffffffffffffffffffffff1681526020019081526020016000205411905090565b6000803411611b0b576040517f08c379a0000000000000000000000000000000000000000000000000000000008152600401611b02906139b6565b60405180910390fd5b611b357f00000000000000000000000000000000000000000000000000000000000000003361136b565b611d2957600034600760003373ffffffffffffffffffffffffffffffffffffffff1673ffffffffffffffffffffffffffffffffffffffff16815260200190815260200160002054611b86919061377c565b90507f00000000000000000000000000000000000000000000000000000000000000008110611ca25734600860003373ffffffffffffffffffffffffffffffffffffffff1673ffffffffffffffffffffffffffffffffffffffff1681526020019081526020016000208190555034600760003373ffffffffffffffffffffffffffffffffffffffff1673ffffffffffffffffffffffffffffffffffffffff1681526020019081526020016000206000828254611c42919061377c565b92505081905550611c737f0000000000000000000000000000000000000000000000000000000000000000336124ed565b611c9d7f0000000000000000000000000000000000000000000000000000000000000000336124ed565b611d23565b34600760003373ffffffffffffffffffffffffffffffffffffffff1673ffffffffffffffffffffffffffffffffffffffff1681526020019081526020016000206000828254611cf1919061377c565b92505081905550611d227f0000000000000000000000000000000000000000000000000000000000000000336124ed565b5b50611dd6565b34600860003373ffffffffffffffffffffffffffffffffffffffff1673ffffffffffffffffffffffffffffffffffffffff1681526020019081526020016000206000828254611d78919061377c565b9250508190555034600760003373ffffffffffffffffffffffffffffffffffffffff1673ffffffffffffffffffffffffffffffffffffffff1681526020019081526020016000206000828254611dce919061377c565b925050819055505b3460036000828254611de8919061377c565b925050819055503073ffffffffffffffffffffffffffffffffffffffff163373ffffffffffffffffffffffffffffffffffffffff167f73a1cb60f50f2e728bc99e4885df312cacdf69558d195a114a0e37d2836696a37f000000000000000000000000000000000000000000000000000000000000000034604051611e6e929190613a48565b60405180910390a3600354905090565b600080600860003373ffffffffffffffffffffffffffffffffffffffff1673ffffffffffffffffffffffffffffffffffffffff1681526020019081526020016000205411905090565b60606040518060400160405280600c81526020017f556e617574686f72697a65640000000000000000000000000000000000000000815250611f297f00000000000000000000000000000000000000000000000000000000000000003361136b565b8190611f6b576040517f08c379a0000000000000000000000000000000000000000000000000000000008152600401611f6291906133ef565b60405180910390fd5b50600560003373ffffffffffffffffffffffffffffffffffffffff1673ffffffffffffffffffffffffffffffffffffffff168152602001908152602001600020805480602002602001604051908101604052809291908181526020018280548015611ff557602002820191906000526020600020905b815481526020019060010190808311611fe1575b505050505091505090565b60007f01ffc9a7000000000000000000000000000000000000000000000000000000007bffffffffffffffffffffffffffffffffffffffffffffffffffffffff1916827bffffffffffffffffffffffffffffffffffffffffffffffffffffffff1916149050919050565b600260015414156120b0576040517f08c379a00000000000000000000000000000000000000000000000000000000081526004016120a790613ad0565b60405180910390fd5b6002600181905550565b6000808273ffffffffffffffffffffffffffffffffffffffff16846040516120e190613b21565b60006040518083038185875af1925050503d806000811461211e576040519150601f19603f3d011682016040523d82523d6000602084013e612123565b606091505b5050905080612167576040517f08c379a000000000000000000000000000000000000000000000000000000000815260040161215e90613b82565b60405180910390fd5b600191505092915050565b60018081905550565b61218c8161218761226f565b6124fb565b50565b612199828261136b565b61226b57600160008084815260200190815260200160002060000160008373ffffffffffffffffffffffffffffffffffffffff1673ffffffffffffffffffffffffffffffffffffffff16815260200190815260200160002060006101000a81548160ff02191690831515021790555061221061226f565b73ffffffffffffffffffffffffffffffffffffffff168173ffffffffffffffffffffffffffffffffffffffff16837f2f8788117e7eff1d82e926ec794901d17c78024a50270940304540a733656f0d60405160405180910390a45b5050565b600033905090565b612281828261136b565b1561235457600080600084815260200190815260200160002060000160008373ffffffffffffffffffffffffffffffffffffffff1673ffffffffffffffffffffffffffffffffffffffff16815260200190815260200160002060006101000a81548160ff0219169083151502179055506122f961226f565b73ffffffffffffffffffffffffffffffffffffffff168173ffffffffffffffffffffffffffffffffffffffff16837ff6391f5c32d9c69d2a47ea670b442974b53935d1edc7fd64eb21e047a839171b60405160405180910390a45b5050565b8060070160019054906101000a900460ff1680612379575042816004015411155b156123d65760018160070160016101000a81548160ff0219169083151502179055506040517f08c379a00000000000000000000000000000000000000000000000000000000081526004016123cd90613bee565b60405180910390fd5b6000600560003373ffffffffffffffffffffffffffffffffffffffff1673ffffffffffffffffffffffffffffffffffffffff16815260200190815260200160002080548060200260200160405190810160405280929190818152602001828054801561246157602002820191906000526020600020905b81548152602001906001019080831161244d575b5050505050905060005b81518110156124e8578181815181106124875761248661393b565b5b6020026020010151836000015414156124d5576040517f08c379a00000000000000000000000000000000000000000000000000000000081526004016124cc90613c5a565b60405180910390fd5b80806124e090613733565b91505061246b565b505050565b6124f7828261218f565b5050565b612505828261136b565b61257c5761251281612580565b6125208360001c60206125ad565b604051602001612531929190613d4e565b6040516020818303038152906040526040517f08c379a000000000000000000000000000000000000000000000000000000000815260040161257391906133ef565b60405180910390fd5b5050565b60606125a68273ffffffffffffffffffffffffffffffffffffffff16601460ff166125ad565b9050919050565b6060600060028360026125c09190613d88565b6125ca919061377c565b67ffffffffffffffff8111156125e3576125e261390c565b5b6040519080825280601f01601f1916602001820160405280156126155781602001600182028036833780820191505090505b5090507f30000000000000000000000000000000000000000000000000000000000000008160008151811061264d5761264c61393b565b5b60200101907effffffffffffffffffffffffffffffffffffffffffffffffffffffffffffff1916908160001a9053507f7800000000000000000000000000000000000000000000000000000000000000816001815181106126b1576126b061393b565b5b60200101907effffffffffffffffffffffffffffffffffffffffffffffffffffffffffffff1916908160001a905350600060018460026126f19190613d88565b6126fb919061377c565b90505b600181111561279b577f3031323334353637383961626364656600000000000000000000000000000000600f86166010811061273d5761273c61393b565b5b1a60f81b8282815181106127545761275361393b565b5b60200101907effffffffffffffffffffffffffffffffffffffffffffffffffffffffffffff1916908160001a905350600485901c94508061279490613de2565b90506126fe565b50600084146127df576040517f08c379a00000000000000000000000000000000000000000000000000000000081526004016127d690613e58565b60405180910390fd5b8091505092915050565b60405180610180016040528060008152602001600081526020016000815260200160008152602001600081526020016060815260200160608152602001600015158152602001600015158152602001600073ffffffffffffffffffffffffffffffffffffffff168152602001600073ffffffffffffffffffffffffffffffffffffffff168152602001600073ffffffffffffffffffffffffffffffffffffffff1681525090565b82805461289c9061366f565b90600052602060002090601f0160209004810192826128be5760008555612905565b82601f106128d757803560ff1916838001178555612905565b82800160010185558215612905579182015b828111156129045782358255916020019190600101906128e9565b5b509050612912919061294f565b5090565b6040518060600160405280600073ffffffffffffffffffffffffffffffffffffffff168152602001600081526020016000151581525090565b5b80821115612968576000816000905550600101612950565b5090565b600080fd5b600080fd5b60007fffffffff0000000000000000000000000000000000000000000000000000000082169050919050565b6129ab81612976565b81146129b657600080fd5b50565b6000813590506129c8816129a2565b92915050565b6000602082840312156129e4576129e361296c565b5b60006129f2848285016129b9565b91505092915050565b60008115159050919050565b612a10816129fb565b82525050565b6000602082019050612a2b6000830184612a07565b92915050565b6000819050919050565b612a4481612a31565b8114612a4f57600080fd5b50565b600081359050612a6181612a3b565b92915050565b600060208284031215612a7d57612a7c61296c565b5b6000612a8b84828501612a52565b91505092915050565b612a9d81612a31565b82525050565b6000602082019050612ab86000830184612a94565b92915050565b600081519050919050565b600082825260208201905092915050565b6000819050602082019050919050565b600073ffffffffffffffffffffffffffffffffffffffff82169050919050565b6000612b1582612aea565b9050919050565b612b2581612b0a565b82525050565b612b3481612a31565b82525050565b612b43816129fb565b82525050565b606082016000820151612b5f6000850182612b1c565b506020820151612b726020850182612b2b565b506040820151612b856040850182612b3a565b50505050565b6000612b978383612b49565b60608301905092915050565b6000602082019050919050565b6000612bbb82612abe565b612bc58185612ac9565b9350612bd083612ada565b8060005b83811015612c01578151612be88882612b8b565b9750612bf383612ba3565b925050600181019050612bd4565b5085935050505092915050565b60006020820190508181036000830152612c288184612bb0565b905092915050565b6000819050919050565b612c4381612c30565b8114612c4e57600080fd5b50565b600081359050612c6081612c3a565b92915050565b600060208284031215612c7c57612c7b61296c565b5b6000612c8a84828501612c51565b91505092915050565b612c9c81612c30565b82525050565b6000602082019050612cb76000830184612c93565b92915050565b600081519050919050565b600082825260208201905092915050565b60005b83811015612cf7578082015181840152602081019050612cdc565b83811115612d06576000848401525b50505050565b6000601f19601f8301169050919050565b6000612d2882612cbd565b612d328185612cc8565b9350612d42818560208601612cd9565b612d4b81612d0c565b840191505092915050565b6000612d6182612aea565b9050919050565b612d7181612d56565b82525050565b600061018083016000830151612d906000860182612b2b565b506020830151612da36020860182612b2b565b506040830151612db66040860182612b2b565b506060830151612dc96060860182612b2b565b506080830151612ddc6080860182612b2b565b5060a083015184820360a0860152612df48282612d1d565b91505060c083015184820360c0860152612e0e8282612d1d565b91505060e0830151612e2360e0860182612b3a565b50610100830151612e38610100860182612b3a565b50610120830151612e4d610120860182612d68565b50610140830151612e62610140860182612b1c565b50610160830151612e77610160860182612b1c565b508091505092915050565b60006020820190508181036000830152612e9c8184612d77565b905092915050565b612ead81612b0a565b8114612eb857600080fd5b50565b600081359050612eca81612ea4565b92915050565b60008060408385031215612ee757612ee661296c565b5b6000612ef585828601612c51565b9250506020612f0685828601612ebb565b9150509250929050565b600080fd5b600080fd5b600080fd5b60008083601f840112612f3557612f34612f10565b5b8235905067ffffffffffffffff811115612f5257612f51612f15565b5b602083019150836001820283011115612f6e57612f6d612f1a565b5b9250929050565b60008060008060008060808789031215612f9257612f9161296c565b5b600087013567ffffffffffffffff811115612fb057612faf612971565b5b612fbc89828a01612f1f565b9650965050602087013567ffffffffffffffff811115612fdf57612fde612971565b5b612feb89828a01612f1f565b94509450506040612ffe89828a01612ebb565b925050606061300f89828a01612a52565b9150509295509295509295565b613025816129fb565b811461303057600080fd5b50565b6000813590506130428161301c565b92915050565b6000806040838503121561305f5761305e61296c565b5b600061306d85828601612a52565b925050602061307e85828601613033565b9150509250929050565b60608201600082015161309e6000850182612b1c565b5060208201516130b16020850182612b2b565b5060408201516130c46040850182612b3a565b50505050565b60006060820190506130df6000830184613088565b92915050565b600081519050919050565b600082825260208201905092915050565b6000819050602082019050919050565b60006101808301600083015161312a6000860182612b2b565b50602083015161313d6020860182612b2b565b5060408301516131506040860182612b2b565b5060608301516131636060860182612b2b565b5060808301516131766080860182612b2b565b5060a083015184820360a086015261318e8282612d1d565b91505060c083015184820360c08601526131a88282612d1d565b91505060e08301516131bd60e0860182612b3a565b506101008301516131d2610100860182612b3a565b506101208301516131e7610120860182612d68565b506101408301516131fc610140860182612b1c565b50610160830151613211610160860182612b1c565b508091505092915050565b60006132288383613111565b905092915050565b6000602082019050919050565b6000613248826130e5565b61325281856130f0565b93508360208202850161326485613101565b8060005b858110156132a05784840389528151613281858261321c565b945061328c83613230565b925060208a01995050600181019050613268565b50829750879550505050505092915050565b600060208201905081810360008301526132cc818461323d565b905092915050565b600081519050919050565b600082825260208201905092915050565b6000819050602082019050919050565b600061330c8383612b2b565b60208301905092915050565b6000602082019050919050565b6000613330826132d4565b61333a81856132df565b9350613345836132f0565b8060005b8381101561337657815161335d8882613300565b975061336883613318565b925050600181019050613349565b5085935050505092915050565b6000602082019050818103600083015261339d8184613325565b905092915050565b600082825260208201905092915050565b60006133c182612cbd565b6133cb81856133a5565b93506133db818560208601612cd9565b6133e481612d0c565b840191505092915050565b6000602082019050818103600083015261340981846133b6565b905092915050565b7f696e73756666696369656e742066756e64000000000000000000000000000000600082015250565b60006134476011836133a5565b915061345282613411565b602082019050919050565b600060208201905081810360008301526134768161343a565b9050919050565b7f7061796d656e7420616c7265616479206d616465000000000000000000000000600082015250565b60006134b36014836133a5565b91506134be8261347d565b602082019050919050565b600060208201905081810360008301526134e2816134a6565b9050919050565b7f696e73756666696369656e7420766f7465730000000000000000000000000000600082015250565b600061351f6012836133a5565b915061352a826134e9565b602082019050919050565b6000602082019050818103600083015261354e81613512565b9050919050565b7f4e487b7100000000000000000000000000000000000000000000000000000000600052601160045260246000fd5b600061358f82612a31565b915061359a83612a31565b9250828210156135ad576135ac613555565b5b828203905092915050565b7f5041594d454e54205355434345535346554c4c59204d41444521000000000000600082015250565b60006135ee601a836133a5565b91506135f9826135b8565b602082019050919050565b60006060820190506136196000830185612c93565b818103602083015261362a816135e1565b90506136396040830184612a94565b9392505050565b7f4e487b7100000000000000000000000000000000000000000000000000000000600052602260045260246000fd5b6000600282049050600182168061368757607f821691505b6020821081141561369b5761369a613640565b5b50919050565b7f416363657373436f6e74726f6c3a2063616e206f6e6c792072656e6f756e636560008201527f20726f6c657320666f722073656c660000000000000000000000000000000000602082015250565b60006136fd602f836133a5565b9150613708826136a1565b604082019050919050565b6000602082019050818103600083015261372c816136f0565b9050919050565b600061373e82612a31565b91507fffffffffffffffffffffffffffffffffffffffffffffffffffffffffffffffff82141561377157613770613555565b5b600182019050919050565b600061378782612a31565b915061379283612a31565b9250827fffffffffffffffffffffffffffffffffffffffffffffffffffffffffffffffff038211156137c7576137c6613555565b5b828201905092915050565b7f50726f706f73616c205261697365640000000000000000000000000000000000600082015250565b6000613808600f836133a5565b9150613813826137d2565b602082019050919050565b60006060820190506138336000830185612c93565b8181036020830152613844816137fb565b90506138536040830184612a94565b9392505050565b7f50524f504f53414c20564f544500000000000000000000000000000000000000600082015250565b6000613890600d836133a5565b915061389b8261385a565b602082019050919050565b600060c0820190506138bb6000830188612c93565b81810360208301526138cc81613883565b90506138db6040830187612a94565b6138e86060830186612a94565b6138f56080830185612a94565b61390260a0830184612a07565b9695505050505050565b7f4e487b7100000000000000000000000000000000000000000000000000000000600052604160045260246000fd5b7f4e487b7100000000000000000000000000000000000000000000000000000000600052603260045260246000fd5b7f696e76616c696420616d6f756e74000000000000000000000000000000000000600082015250565b60006139a0600e836133a5565b91506139ab8261396a565b602082019050919050565b600060208201905081810360008301526139cf81613993565b9050919050565b7f434f4e545249425554494f4e205355434345535346554c4c592052454345495660008201527f4544210000000000000000000000000000000000000000000000000000000000602082015250565b6000613a326023836133a5565b9150613a3d826139d6565b604082019050919050565b6000606082019050613a5d6000830185612c93565b8181036020830152613a6e81613a25565b9050613a7d6040830184612a94565b9392505050565b7f5265656e7472616e637947756172643a207265656e7472616e742063616c6c00600082015250565b6000613aba601f836133a5565b9150613ac582613a84565b602082019050919050565b60006020820190508181036000830152613ae981613aad565b9050919050565b600081905092915050565b50565b6000613b0b600083613af0565b9150613b1682613afb565b600082019050919050565b6000613b2c82613afe565b9150819050919050565b7f7061796d656e74206661696c6564000000000000000000000000000000000000600082015250565b6000613b6c600e836133a5565b9150613b7782613b36565b602082019050919050565b60006020820190508181036000830152613b9b81613b5f565b9050919050565b7f54696d652068617320616c726561647920706173736564000000000000000000600082015250565b6000613bd86017836133a5565b9150613be382613ba2565b602082019050919050565b60006020820190508181036000830152613c0781613bcb565b9050919050565b7f646f75626c6520766f74696e67206973206e6f7420616c6c6f77656400000000600082015250565b6000613c44601c836133a5565b9150613c4f82613c0e565b602082019050919050565b60006020820190508181036000830152613c7381613c37565b9050919050565b600081905092915050565b7f416363657373436f6e74726f6c3a206163636f756e7420000000000000000000600082015250565b6000613cbb601783613c7a565b9150613cc682613c85565b601782019050919050565b6000613cdc82612cbd565b613ce68185613c7a565b9350613cf6818560208601612cd9565b80840191505092915050565b7f206973206d697373696e6720726f6c6520000000000000000000000000000000600082015250565b6000613d38601183613c7a565b9150613d4382613d02565b601182019050919050565b6000613d5982613cae565b9150613d658285613cd1565b9150613d7082613d2b565b9150613d7c8284613cd1565b91508190509392505050565b6000613d9382612a31565b9150613d9e83612a31565b9250817fffffffffffffffffffffffffffffffffffffffffffffffffffffffffffffffff0483118215151615613dd757613dd6613555565b5b828202905092915050565b6000613ded82612a31565b91506000821415613e0157613e00613555565b5b600182039050919050565b7f537472696e67733a20686578206c656e67746820696e73756666696369656e74600082015250565b6000613e426020836133a5565b9150613e4d82613e0c565b602082019050919050565b60006020820190508181036000830152613e7181613e35565b905091905056fe4f6e6c79207374616b65686f6c646572732063616e20706572666f726d20766f74696e674f6e6c79207374616b65686f6c646572732063616e206d616b65207061796d656e744f6e6c79207374616b65686f6c646572732061726520616c6c6f77656420746f206372656174652050726f706f73616c73a2646970667358221220c2df75cede73e2deb387d08356cbbc7b7753eece03edd64c65cf447b51a562e864736f6c63430008090033",
  "devdoc": {
    "kind": "dev",
    "methods": {
      "getRoleAdmin(bytes32)": {
        "details": "Returns the admin role that controls `role`. See {grantRole} and {revokeRole}. To change a role's admin, use {_setRoleAdmin}."
      },
      "grantRole(bytes32,address)": {
        "details": "Grants `role` to `account`. If `account` had not been already granted `role`, emits a {RoleGranted} event. Requirements: - the caller must have ``role``'s admin role. May emit a {RoleGranted} event."
      },
      "hasRole(bytes32,address)": {
        "details": "Returns `true` if `account` has been granted `role`."
      },
      "renounceRole(bytes32,address)": {
        "details": "Revokes `role` from the calling account. Roles are often managed via {grantRole} and {revokeRole}: this function's purpose is to provide a mechanism for accounts to lose their privileges if they are compromised (such as when a trusted device is misplaced). If the calling account had been revoked `role`, emits a {RoleRevoked} event. Requirements: - the caller must be `account`. May emit a {RoleRevoked} event."
      },
      "revokeRole(bytes32,address)": {
        "details": "Revokes `role` from `account`. If `account` had been granted `role`, emits a {RoleRevoked} event. Requirements: - the caller must have ``role``'s admin role. May emit a {RoleRevoked} event."
      },
      "supportsInterface(bytes4)": {
        "details": "See {IERC165-supportsInterface}."
      }
    },
    "version": 1
  },
  "userdoc": {
    "kind": "user",
    "methods": {},
    "version": 1
  },
  "storageLayout": {
    "storage": [
      {
        "astId": 24,
        "contract": "contracts/DAO.sol:Dao",
        "label": "_roles",
        "offset": 0,
        "slot": "0",
        "type": "t_mapping(t_bytes32,t_struct(RoleData)19_storage)"
      },
      {
        "astId": 399,
        "contract": "contracts/DAO.sol:Dao",
        "label": "_status",
        "offset": 0,
        "slot": "1",
        "type": "t_uint256"
      },
      {
        "astId": 1550,
        "contract": "contracts/DAO.sol:Dao",
        "label": "totalProposals",
        "offset": 0,
        "slot": "2",
        "type": "t_uint256"
      },
      {
        "astId": 1552,
        "contract": "contracts/DAO.sol:Dao",
        "label": "balance",
        "offset": 0,
        "slot": "3",
        "type": "t_uint256"
      },
      {
        "astId": 1573,
        "contract": "contracts/DAO.sol:Dao",
        "label": "raisedProposals",
        "offset": 0,
        "slot": "4",
        "type": "t_mapping(t_uint256,t_struct(Proposals)1647_storage)"
      },
      {
        "astId": 1578,
        "contract": "contracts/DAO.sol:Dao",
        "label": "stakeholderVotes",
        "offset": 0,
        "slot": "5",
        "type": "t_mapping(t_address,t_array(t_uint256)dyn_storage)"
      },
      {
        "astId": 1584,
        "contract": "contracts/DAO.sol:Dao",
        "label": "votedOn",
        "offset": 0,
        "slot": "6",
        "type": "t_mapping(t_uint256,t_array(t_struct(Voted)1654_storage)dyn_storage)"
      },
      {
        "astId": 1588,
        "contract": "contracts/DAO.sol:Dao",
        "label": "contributors",
        "offset": 0,
        "slot": "7",
        "type": "t_mapping(t_address,t_uint256)"
      },
      {
        "astId": 1592,
        "contract": "contracts/DAO.sol:Dao",
        "label": "stakeholders",
        "offset": 0,
        "slot": "8",
        "type": "t_mapping(t_address,t_uint256)"
      }
    ],
    "types": {
      "t_address": {
        "encoding": "inplace",
        "label": "address",
        "numberOfBytes": "20"
      },
      "t_address_payable": {
        "encoding": "inplace",
        "label": "address payable",
        "numberOfBytes": "20"
      },
      "t_array(t_struct(Voted)1654_storage)dyn_storage": {
        "base": "t_struct(Voted)1654_storage",
        "encoding": "dynamic_array",
        "label": "struct Dao.Voted[]",
        "numberOfBytes": "32"
      },
      "t_array(t_uint256)dyn_storage": {
        "base": "t_uint256",
        "encoding": "dynamic_array",
        "label": "uint256[]",
        "numberOfBytes": "32"
      },
      "t_bool": {
        "encoding": "inplace",
        "label": "bool",
        "numberOfBytes": "1"
      },
      "t_bytes32": {
        "encoding": "inplace",
        "label": "bytes32",
        "numberOfBytes": "32"
      },
      "t_mapping(t_address,t_array(t_uint256)dyn_storage)": {
        "encoding": "mapping",
        "key": "t_address",
        "label": "mapping(address => uint256[])",
        "numberOfBytes": "32",
        "value": "t_array(t_uint256)dyn_storage"
      },
      "t_mapping(t_address,t_bool)": {
        "encoding": "mapping",
        "key": "t_address",
        "label": "mapping(address => bool)",
        "numberOfBytes": "32",
        "value": "t_bool"
      },
      "t_mapping(t_address,t_uint256)": {
        "encoding": "mapping",
        "key": "t_address",
        "label": "mapping(address => uint256)",
        "numberOfBytes": "32",
        "value": "t_uint256"
      },
      "t_mapping(t_bytes32,t_struct(RoleData)19_storage)": {
        "encoding": "mapping",
        "key": "t_bytes32",
        "label": "mapping(bytes32 => struct AccessControl.RoleData)",
        "numberOfBytes": "32",
        "value": "t_struct(RoleData)19_storage"
      },
      "t_mapping(t_uint256,t_array(t_struct(Voted)1654_storage)dyn_storage)": {
        "encoding": "mapping",
        "key": "t_uint256",
        "label": "mapping(uint256 => struct Dao.Voted[])",
        "numberOfBytes": "32",
        "value": "t_array(t_struct(Voted)1654_storage)dyn_storage"
      },
      "t_mapping(t_uint256,t_struct(Proposals)1647_storage)": {
        "encoding": "mapping",
        "key": "t_uint256",
        "label": "mapping(uint256 => struct Dao.Proposals)",
        "numberOfBytes": "32",
        "value": "t_struct(Proposals)1647_storage"
      },
      "t_string_storage": {
        "encoding": "bytes",
        "label": "string",
        "numberOfBytes": "32"
      },
      "t_struct(Proposals)1647_storage": {
        "encoding": "inplace",
        "label": "struct Dao.Proposals",
        "members": [
          {
            "astId": 1624,
            "contract": "contracts/DAO.sol:Dao",
            "label": "id",
            "offset": 0,
            "slot": "0",
            "type": "t_uint256"
          },
          {
            "astId": 1626,
            "contract": "contracts/DAO.sol:Dao",
            "label": "amount",
            "offset": 0,
            "slot": "1",
            "type": "t_uint256"
          },
          {
            "astId": 1628,
            "contract": "contracts/DAO.sol:Dao",
            "label": "upVote",
            "offset": 0,
            "slot": "2",
            "type": "t_uint256"
          },
          {
            "astId": 1630,
            "contract": "contracts/DAO.sol:Dao",
            "label": "downVotes",
            "offset": 0,
            "slot": "3",
            "type": "t_uint256"
          },
          {
            "astId": 1632,
            "contract": "contracts/DAO.sol:Dao",
            "label": "duration",
            "offset": 0,
            "slot": "4",
            "type": "t_uint256"
          },
          {
            "astId": 1634,
            "contract": "contracts/DAO.sol:Dao",
            "label": "title",
            "offset": 0,
            "slot": "5",
            "type": "t_string_storage"
          },
          {
            "astId": 1636,
            "contract": "contracts/DAO.sol:Dao",
            "label": "description",
            "offset": 0,
            "slot": "6",
            "type": "t_string_storage"
          },
          {
            "astId": 1638,
            "contract": "contracts/DAO.sol:Dao",
            "label": "paid",
            "offset": 0,
            "slot": "7",
            "type": "t_bool"
          },
          {
            "astId": 1640,
            "contract": "contracts/DAO.sol:Dao",
            "label": "passed",
            "offset": 1,
            "slot": "7",
            "type": "t_bool"
          },
          {
            "astId": 1642,
            "contract": "contracts/DAO.sol:Dao",
            "label": "beneficiary",
            "offset": 2,
            "slot": "7",
            "type": "t_address_payable"
          },
          {
            "astId": 1644,
            "contract": "contracts/DAO.sol:Dao",
            "label": "propoper",
            "offset": 0,
            "slot": "8",
            "type": "t_address"
          },
          {
            "astId": 1646,
            "contract": "contracts/DAO.sol:Dao",
            "label": "executor",
            "offset": 0,
            "slot": "9",
            "type": "t_address"
          }
        ],
        "numberOfBytes": "320"
      },
      "t_struct(RoleData)19_storage": {
        "encoding": "inplace",
        "label": "struct AccessControl.RoleData",
        "members": [
          {
            "astId": 16,
            "contract": "contracts/DAO.sol:Dao",
            "label": "members",
            "offset": 0,
            "slot": "0",
            "type": "t_mapping(t_address,t_bool)"
          },
          {
            "astId": 18,
            "contract": "contracts/DAO.sol:Dao",
            "label": "adminRole",
            "offset": 0,
            "slot": "1",
            "type": "t_bytes32"
          }
        ],
        "numberOfBytes": "64"
      },
      "t_struct(Voted)1654_storage": {
        "encoding": "inplace",
        "label": "struct Dao.Voted",
        "members": [
          {
            "astId": 1649,
            "contract": "contracts/DAO.sol:Dao",
            "label": "voter",
            "offset": 0,
            "slot": "0",
            "type": "t_address"
          },
          {
            "astId": 1651,
            "contract": "contracts/DAO.sol:Dao",
            "label": "timestamp",
            "offset": 0,
            "slot": "1",
            "type": "t_uint256"
          },
          {
            "astId": 1653,
            "contract": "contracts/DAO.sol:Dao",
            "label": "chosen",
            "offset": 0,
            "slot": "2",
            "type": "t_bool"
          }
        ],
        "numberOfBytes": "96"
      },
      "t_uint256": {
        "encoding": "inplace",
        "label": "uint256",
        "numberOfBytes": "32"
      }
    }
  }
}