{
  "address": "0x5FbDB2315678afecb367f032d93F642f64180aa3",
  "abi": [
    {
      "inputs": [],
      "stateMutability": "nonpayable",
      "type": "constructor"
    },
    {
      "anonymous": false,
      "inputs": [
        {
          "indexed": true,
          "internalType": "address",
          "name": "creator",
          "type": "address"
        },
        {
          "indexed": false,
          "internalType": "bytes32",
          "name": "role",
          "type": "bytes32"
        },
        {
          "indexed": false,
          "internalType": "string",
          "name": "message",
          "type": "string"
        },
        {
          "indexed": true,
          "internalType": "address",
          "name": "beneficiary",
          "type": "address"
        },
        {
          "indexed": false,
          "internalType": "uint256",
          "name": "amount",
          "type": "uint256"
        }
      ],
      "name": "ProposalAction",
      "type": "event"
    },
    {
      "anonymous": false,
      "inputs": [
        {
          "indexed": true,
          "internalType": "bytes32",
          "name": "role",
          "type": "bytes32"
        },
        {
          "indexed": true,
          "internalType": "bytes32",
          "name": "previousAdminRole",
          "type": "bytes32"
        },
        {
          "indexed": true,
          "internalType": "bytes32",
          "name": "newAdminRole",
          "type": "bytes32"
        }
      ],
      "name": "RoleAdminChanged",
      "type": "event"
    },
    {
      "anonymous": false,
      "inputs": [
        {
          "indexed": true,
          "internalType": "bytes32",
          "name": "role",
          "type": "bytes32"
        },
        {
          "indexed": true,
          "internalType": "address",
          "name": "account",
          "type": "address"
        },
        {
          "indexed": true,
          "internalType": "address",
          "name": "sender",
          "type": "address"
        }
      ],
      "name": "RoleGranted",
      "type": "event"
    },
    {
      "anonymous": false,
      "inputs": [
        {
          "indexed": true,
          "internalType": "bytes32",
          "name": "role",
          "type": "bytes32"
        },
        {
          "indexed": true,
          "internalType": "address",
          "name": "account",
          "type": "address"
        },
        {
          "indexed": true,
          "internalType": "address",
          "name": "sender",
          "type": "address"
        }
      ],
      "name": "RoleRevoked",
      "type": "event"
    },
    {
      "anonymous": false,
      "inputs": [
        {
          "indexed": true,
          "internalType": "address",
          "name": "creator",
          "type": "address"
        },
        {
          "indexed": false,
          "internalType": "bytes32",
          "name": "role",
          "type": "bytes32"
        },
        {
          "indexed": false,
          "internalType": "string",
          "name": "message",
          "type": "string"
        },
        {
          "indexed": true,
          "internalType": "address",
          "name": "beneficiary",
          "type": "address"
        },
        {
          "indexed": false,
          "internalType": "uint256",
          "name": "amount",
          "type": "uint256"
        },
        {
          "indexed": false,
          "internalType": "uint256",
          "name": "upVote",
          "type": "uint256"
        },
        {
          "indexed": false,
          "internalType": "uint256",
          "name": "downVotes",
          "type": "uint256"
        },
        {
          "indexed": false,
          "internalType": "bool",
          "name": "chosen",
          "type": "bool"
        }
      ],
      "name": "VoteAction",
      "type": "event"
    },
    {
      "inputs": [],
      "name": "DEFAULT_ADMIN_ROLE",
      "outputs": [
        {
          "internalType": "bytes32",
          "name": "",
          "type": "bytes32"
        }
      ],
      "stateMutability": "view",
      "type": "function"
    },
    {
      "inputs": [],
      "name": "contribute",
      "outputs": [
        {
          "internalType": "uint256",
          "name": "",
          "type": "uint256"
        }
      ],
      "stateMutability": "payable",
      "type": "function"
    },
    {
      "inputs": [
        {
          "internalType": "string",
          "name": "title",
          "type": "string"
        },
        {
          "internalType": "string",
          "name": "description",
          "type": "string"
        },
        {
          "internalType": "address",
          "name": "beneficiary",
          "type": "address"
        },
        {
          "internalType": "uint256",
          "name": "amount",
          "type": "uint256"
        }
      ],
      "name": "createProposal",
      "outputs": [
        {
          "components": [
            {
              "internalType": "uint256",
              "name": "id",
              "type": "uint256"
            },
            {
              "internalType": "uint256",
              "name": "amount",
              "type": "uint256"
            },
            {
              "internalType": "uint256",
              "name": "upVote",
              "type": "uint256"
            },
            {
              "internalType": "uint256",
              "name": "downVotes",
              "type": "uint256"
            },
            {
              "internalType": "uint256",
              "name": "duration",
              "type": "uint256"
            },
            {
              "internalType": "string",
              "name": "title",
              "type": "string"
            },
            {
              "internalType": "string",
              "name": "description",
              "type": "string"
            },
            {
              "internalType": "bool",
              "name": "paid",
              "type": "bool"
            },
            {
              "internalType": "bool",
              "name": "passed",
              "type": "bool"
            },
            {
              "internalType": "address payable",
              "name": "beneficiary",
              "type": "address"
            },
            {
              "internalType": "address",
              "name": "propoper",
              "type": "address"
            },
            {
              "internalType": "address",
              "name": "executor",
              "type": "address"
            }
          ],
          "internalType": "struct Dao.Proposals",
          "name": "",
          "type": "tuple"
        }
      ],
      "stateMutability": "nonpayable",
      "type": "function"
    },
    {
      "inputs": [],
      "name": "getAllProposals",
      "outputs": [
        {
          "components": [
            {
              "internalType": "uint256",
              "name": "id",
              "type": "uint256"
            },
            {
              "internalType": "uint256",
              "name": "amount",
              "type": "uint256"
            },
            {
              "internalType": "uint256",
              "name": "upVote",
              "type": "uint256"
            },
            {
              "internalType": "uint256",
              "name": "downVotes",
              "type": "uint256"
            },
            {
              "internalType": "uint256",
              "name": "duration",
              "type": "uint256"
            },
            {
              "internalType": "string",
              "name": "title",
              "type": "string"
            },
            {
              "internalType": "string",
              "name": "description",
              "type": "string"
            },
            {
              "internalType": "bool",
              "name": "paid",
              "type": "bool"
            },
            {
              "internalType": "bool",
              "name": "passed",
              "type": "bool"
            },
            {
              "internalType": "address payable",
              "name": "beneficiary",
              "type": "address"
            },
            {
              "internalType": "address",
              "name": "propoper",
              "type": "address"
            },
            {
              "internalType": "address",
              "name": "executor",
              "type": "address"
            }
          ],
          "internalType": "struct Dao.Proposals[]",
          "name": "props",
          "type": "tuple[]"
        }
      ],
      "stateMutability": "view",
      "type": "function"
    },
    {
      "inputs": [],
      "name": "getContributorsBalance",
      "outputs": [
        {
          "internalType": "uint256",
          "name": "",
          "type": "uint256"
        }
      ],
      "stateMutability": "view",
      "type": "function"
    },
    {
      "inputs": [
        {
          "internalType": "uint256",
          "name": "proposalID",
          "type": "uint256"
        }
      ],
      "name": "getProposalVote",
      "outputs": [
        {
          "components": [
            {
              "internalType": "address",
              "name": "voter",
              "type": "address"
            },
            {
              "internalType": "uint256",
              "name": "timestamp",
              "type": "uint256"
            },
            {
              "internalType": "bool",
              "name": "chosen",
              "type": "bool"
            }
          ],
          "internalType": "struct Dao.Voted[]",
          "name": "",
          "type": "tuple[]"
        }
      ],
      "stateMutability": "view",
      "type": "function"
    },
    {
      "inputs": [
        {
          "internalType": "uint256",
          "name": "proposalID",
          "type": "uint256"
        }
      ],
      "name": "getProposals",
      "outputs": [
        {
          "components": [
            {
              "internalType": "uint256",
              "name": "id",
              "type": "uint256"
            },
            {
              "internalType": "uint256",
              "name": "amount",
              "type": "uint256"
            },
            {
              "internalType": "uint256",
              "name": "upVote",
              "type": "uint256"
            },
            {
              "internalType": "uint256",
              "name": "downVotes",
              "type": "uint256"
            },
            {
              "internalType": "uint256",
              "name": "duration",
              "type": "uint256"
            },
            {
              "internalType": "string",
              "name": "title",
              "type": "string"
            },
            {
              "internalType": "string",
              "name": "description",
              "type": "string"
            },
            {
              "internalType": "bool",
              "name": "paid",
              "type": "bool"
            },
            {
              "internalType": "bool",
              "name": "passed",
              "type": "bool"
            },
            {
              "internalType": "address payable",
              "name": "beneficiary",
              "type": "address"
            },
            {
              "internalType": "address",
              "name": "propoper",
              "type": "address"
            },
            {
              "internalType": "address",
              "name": "executor",
              "type": "address"
            }
          ],
          "internalType": "struct Dao.Proposals",
          "name": "",
          "type": "tuple"
        }
      ],
      "stateMutability": "view",
      "type": "function"
    },
    {
      "inputs": [
        {
          "internalType": "bytes32",
          "name": "role",
          "type": "bytes32"
        }
      ],
      "name": "getRoleAdmin",
      "outputs": [
        {
          "internalType": "bytes32",
          "name": "",
          "type": "bytes32"
        }
      ],
      "stateMutability": "view",
      "type": "function"
    },
    {
      "inputs": [],
      "name": "getStakeholdersBalances",
      "outputs": [
        {
          "internalType": "uint256",
          "name": "",
          "type": "uint256"
        }
      ],
      "stateMutability": "view",
      "type": "function"
    },
    {
      "inputs": [],
      "name": "getStakeholdersVotes",
      "outputs": [
        {
          "internalType": "uint256[]",
          "name": "",
          "type": "uint256[]"
        }
      ],
      "stateMutability": "view",
      "type": "function"
    },
    {
      "inputs": [],
      "name": "getTotalBalance",
      "outputs": [
        {
          "internalType": "uint256",
          "name": "",
          "type": "uint256"
        }
      ],
      "stateMutability": "view",
      "type": "function"
    },
    {
      "inputs": [
        {
          "internalType": "bytes32",
          "name": "role",
          "type": "bytes32"
        },
        {
          "internalType": "address",
          "name": "account",
          "type": "address"
        }
      ],
      "name": "grantRole",
      "outputs": [],
      "stateMutability": "nonpayable",
      "type": "function"
    },
    {
      "inputs": [
        {
          "internalType": "bytes32",
          "name": "role",
          "type": "bytes32"
        },
        {
          "internalType": "address",
          "name": "account",
          "type": "address"
        }
      ],
      "name": "hasRole",
      "outputs": [
        {
          "internalType": "bool",
          "name": "",
          "type": "bool"
        }
      ],
      "stateMutability": "view",
      "type": "function"
    },
    {
      "inputs": [],
      "name": "isContributor",
      "outputs": [
        {
          "internalType": "bool",
          "name": "",
          "type": "bool"
        }
      ],
      "stateMutability": "view",
      "type": "function"
    },
    {
      "inputs": [
        {
          "internalType": "uint256",
          "name": "proposalId",
          "type": "uint256"
        }
      ],
      "name": "payBeneficiary",
      "outputs": [
        {
          "internalType": "uint256",
          "name": "",
          "type": "uint256"
        }
      ],
      "stateMutability": "nonpayable",
      "type": "function"
    },
    {
      "inputs": [
        {
          "internalType": "uint256",
          "name": "proposalId",
          "type": "uint256"
        },
        {
          "internalType": "bool",
          "name": "chosen",
          "type": "bool"
        }
      ],
      "name": "performVote",
      "outputs": [
        {
          "components": [
            {
              "internalType": "address",
              "name": "voter",
              "type": "address"
            },
            {
              "internalType": "uint256",
              "name": "timestamp",
              "type": "uint256"
            },
            {
              "internalType": "bool",
              "name": "chosen",
              "type": "bool"
            }
          ],
          "internalType": "struct Dao.Voted",
          "name": "",
          "type": "tuple"
        }
      ],
      "stateMutability": "nonpayable",
      "type": "function"
    },
    {
      "inputs": [
        {
          "internalType": "bytes32",
          "name": "role",
          "type": "bytes32"
        },
        {
          "internalType": "address",
          "name": "account",
          "type": "address"
        }
      ],
      "name": "renounceRole",
      "outputs": [],
      "stateMutability": "nonpayable",
      "type": "function"
    },
    {
      "inputs": [
        {
          "internalType": "bytes32",
          "name": "role",
          "type": "bytes32"
        },
        {
          "internalType": "address",
          "name": "account",
          "type": "address"
        }
      ],
      "name": "revokeRole",
      "outputs": [],
      "stateMutability": "nonpayable",
      "type": "function"
    },
    {
      "inputs": [],
      "name": "stakeholderStatus",
      "outputs": [
        {
          "internalType": "bool",
          "name": "",
          "type": "bool"
        }
      ],
      "stateMutability": "view",
      "type": "function"
    },
    {
      "inputs": [
        {
          "internalType": "bytes4",
          "name": "interfaceId",
          "type": "bytes4"
        }
      ],
      "name": "supportsInterface",
      "outputs": [
        {
          "internalType": "bool",
          "name": "",
          "type": "bool"
        }
      ],
      "stateMutability": "view",
      "type": "function"
    }
  ],
  "transactionHash": "0x411f8a5a7c574335b664d41cd41c786f97c9c3158bcd5ec6abfa47b1f1ca1163",
  "args": [],
  "numDeployments": 1,
  "solcInputHash": "a4fbceb9a1a725ad3155e99d105d699a",
  "bytecode": "0x610100604052670de0b6b3a764000060809081525061012c60a0908152507fd3cd73767648ee32815639d235132b56387142ddb995e593e7f0b0db442a7d4860c0908152507f193aaa92f8a12e564bc860f8d10b1c1f937927ff6a6e804d359875acec3e5a5a60e09081525034801561007757600080fd5b506001808190555033600460006101000a81548173ffffffffffffffffffffffffffffffffffffffff021916908373ffffffffffffffffffffffffffffffffffffffff16021790555060805160a05160c05160e051613ff061014d60003960008181610597015281816108f901528181610d7801528181610ecf0152818161106b015281816114cd0152818161175a01528181611bdb01528181611d1901528181611f0b0152611fcf01526000818161138801528181611d430152611dc801526000610fe801526000611c550152613ff06000f3fe60806040526004361061011f5760003560e01c806383047f80116100a0578063d547741f11610064578063d547741f14610435578063d6cc80161461045e578063d7bb99ba14610489578063f43327d2146104a7578063ff4b0db7146104d25761011f565b806383047f801461033a57806391d1485414610365578063a217fddf146103a2578063b31f111c146103cd578063cceb68f51461040a5761011f565b80632c72fdfc116100e75780632c72fdfc146102435780632f2ff15d14610280578063341edbed146102a957806336568abe146102d45780637cdc2eb7146102fd5761011f565b806301ffc9a714610124578063119c37c81461016157806312b583491461019e5780631c9b2f35146101c9578063248a9ca314610206575b600080fd5b34801561013057600080fd5b5061014b60048036038101906101469190612a99565b6104fd565b6040516101589190612ae1565b60405180910390f35b34801561016d57600080fd5b5061018860048036038101906101839190612b32565b610577565b6040516101959190612b6e565b60405180910390f35b3480156101aa57600080fd5b506101b3610948565b6040516101c09190612b6e565b60405180910390f35b3480156101d557600080fd5b506101f060048036038101906101eb9190612b32565b610952565b6040516101fd9190612cd9565b60405180910390f35b34801561021257600080fd5b5061022d60048036038101906102289190612d31565b610a3f565b60405161023a9190612d6d565b60405180910390f35b34801561024f57600080fd5b5061026a60048036038101906102659190612b32565b610a5e565b6040516102779190612f4d565b60405180910390f35b34801561028c57600080fd5b506102a760048036038101906102a29190612f9b565b610d1a565b005b3480156102b557600080fd5b506102be610d3b565b6040516102cb9190612b6e565b60405180910390f35b3480156102e057600080fd5b506102fb60048036038101906102f69190612f9b565b610e26565b005b34801561030957600080fd5b50610324600480360381019061031f9190613040565b610ea9565b6040516103319190612f4d565b60405180910390f35b34801561034657600080fd5b5061034f61134b565b60405161035c9190612b6e565b60405180910390f35b34801561037157600080fd5b5061038c60048036038101906103879190612f9b565b611436565b6040516103999190612ae1565b60405180910390f35b3480156103ae57600080fd5b506103b76114a0565b6040516103c49190612d6d565b60405180910390f35b3480156103d957600080fd5b506103f460048036038101906103ef9190613113565b6114a7565b6040516104019190613195565b60405180910390f35b34801561041657600080fd5b5061041f6117df565b60405161042c919061337d565b60405180910390f35b34801561044157600080fd5b5061045c60048036038101906104579190612f9b565b611b28565b005b34801561046a57600080fd5b50610473611b49565b6040516104809190612ae1565b60405180910390f35b610491611b92565b60405161049e9190612b6e565b60405180910390f35b3480156104b357600080fd5b506104bc611f49565b6040516104c99190612ae1565b60405180910390f35b3480156104de57600080fd5b506104e7611f92565b6040516104f4919061344e565b60405180910390f35b60007f7965db0b000000000000000000000000000000000000000000000000000000007bffffffffffffffffffffffffffffffffffffffffffffffffffffffff1916827bffffffffffffffffffffffffffffffffffffffffffffffffffffffff19161480610570575061056f826120cb565b5b9050919050565b6000604051806060016040528060228152602001613f68602291396105bc7f000000000000000000000000000000000000000000000000000000000000000033611436565b81906105fe576040517f08c379a00000000000000000000000000000000000000000000000000000000081526004016105f591906134ba565b60405180910390fd5b506040518060400160405280601e81526020017f4f6e6c79206465706c6f7965722063616e206d616b65207061796d656e740000815250600460009054906101000a900473ffffffffffffffffffffffffffffffffffffffff1673ffffffffffffffffffffffffffffffffffffffff163373ffffffffffffffffffffffffffffffffffffffff161481906106c8576040517f08c379a00000000000000000000000000000000000000000000000000000000081526004016106bf91906134ba565b60405180910390fd5b506106d1612135565b600060056000868152602001908152602001600020905080600101546003541015610731576040517f08c379a000000000000000000000000000000000000000000000000000000000815260040161072890613528565b60405180910390fd5b600115158160070160009054906101000a900460ff161515141561078a576040517f08c379a000000000000000000000000000000000000000000000000000000000815260040161078190613594565b60405180910390fd5b80600301548160020154116107d4576040517f08c379a00000000000000000000000000000000000000000000000000000000081526004016107cb90613600565b60405180910390fd5b61080681600101548260070160029054906101000a900473ffffffffffffffffffffffffffffffffffffffff16612185565b5060018160070160006101000a81548160ff021916908315150217905550338160090160006101000a81548173ffffffffffffffffffffffffffffffffffffffff021916908373ffffffffffffffffffffffffffffffffffffffff16021790555080600101546003600082825461087d919061364f565b925050819055508060070160029054906101000a900473ffffffffffffffffffffffffffffffffffffffff1673ffffffffffffffffffffffffffffffffffffffff163373ffffffffffffffffffffffffffffffffffffffff167f73a1cb60f50f2e728bc99e4885df312cacdf69558d195a114a0e37d2836696a37f0000000000000000000000000000000000000000000000000000000000000000846001015460405161092b9291906136cf565b60405180910390a360035493505061094161223d565b5050919050565b6000600354905090565b606060076000838152602001908152602001600020805480602002602001604051908101604052809291908181526020016000905b82821015610a3457838290600052602060002090600302016040518060600160405290816000820160009054906101000a900473ffffffffffffffffffffffffffffffffffffffff1673ffffffffffffffffffffffffffffffffffffffff1673ffffffffffffffffffffffffffffffffffffffff168152602001600182015481526020016002820160009054906101000a900460ff16151515158152505081526020019060010190610987565b505050509050919050565b6000806000838152602001908152602001600020600101549050919050565b610a666128b4565b60056000838152602001908152602001600020604051806101800160405290816000820154815260200160018201548152602001600282015481526020016003820154815260200160048201548152602001600582018054610ac79061373a565b80601f0160208091040260200160405190810160405280929190818152602001828054610af39061373a565b8015610b405780601f10610b1557610100808354040283529160200191610b40565b820191906000526020600020905b815481529060010190602001808311610b2357829003601f168201915b50505050508152602001600682018054610b599061373a565b80601f0160208091040260200160405190810160405280929190818152602001828054610b859061373a565b8015610bd25780601f10610ba757610100808354040283529160200191610bd2565b820191906000526020600020905b815481529060010190602001808311610bb557829003601f168201915b505050505081526020016007820160009054906101000a900460ff161515151581526020016007820160019054906101000a900460ff161515151581526020016007820160029054906101000a900473ffffffffffffffffffffffffffffffffffffffff1673ffffffffffffffffffffffffffffffffffffffff1673ffffffffffffffffffffffffffffffffffffffff1681526020016008820160009054906101000a900473ffffffffffffffffffffffffffffffffffffffff1673ffffffffffffffffffffffffffffffffffffffff1673ffffffffffffffffffffffffffffffffffffffff1681526020016009820160009054906101000a900473ffffffffffffffffffffffffffffffffffffffff1673ffffffffffffffffffffffffffffffffffffffff1673ffffffffffffffffffffffffffffffffffffffff16815250509050919050565b610d2382610a3f565b610d2c81612246565b610d36838361225a565b505050565b60006040518060400160405280600c81526020017f756e617574686f72697a65640000000000000000000000000000000000000000815250610d9d7f000000000000000000000000000000000000000000000000000000000000000033611436565b8190610ddf576040517f08c379a0000000000000000000000000000000000000000000000000000000008152600401610dd691906134ba565b60405180910390fd5b50600960003373ffffffffffffffffffffffffffffffffffffffff1673ffffffffffffffffffffffffffffffffffffffff1681526020019081526020016000205491505090565b610e2e61233a565b73ffffffffffffffffffffffffffffffffffffffff168173ffffffffffffffffffffffffffffffffffffffff1614610e9b576040517f08c379a0000000000000000000000000000000000000000000000000000000008152600401610e92906137de565b60405180910390fd5b610ea58282612342565b5050565b610eb16128b4565b604051806060016040528060318152602001613f8a60319139610ef47f000000000000000000000000000000000000000000000000000000000000000033611436565b8190610f36576040517f08c379a0000000000000000000000000000000000000000000000000000000008152600401610f2d91906134ba565b60405180910390fd5b50600060026000815480929190610f4c906137fe565b91905055905060006005600083815260200190815260200160002090508181600001819055508481600101819055508989826005019190610f8e92919061295b565b508787826006019190610fa292919061295b565b50858160070160026101000a81548173ffffffffffffffffffffffffffffffffffffffff021916908373ffffffffffffffffffffffffffffffffffffffff1602179055507f0000000000000000000000000000000000000000000000000000000000000000426110129190613847565b81600401819055508573ffffffffffffffffffffffffffffffffffffffff163373ffffffffffffffffffffffffffffffffffffffff167f73a1cb60f50f2e728bc99e4885df312cacdf69558d195a114a0e37d2836696a37f0000000000000000000000000000000000000000000000000000000000000000886040516110999291906138e9565b60405180910390a3806040518061018001604052908160008201548152602001600182015481526020016002820154815260200160038201548152602001600482015481526020016005820180546110f09061373a565b80601f016020809104026020016040519081016040528092919081815260200182805461111c9061373a565b80156111695780601f1061113e57610100808354040283529160200191611169565b820191906000526020600020905b81548152906001019060200180831161114c57829003601f168201915b505050505081526020016006820180546111829061373a565b80601f01602080910402602001604051908101604052809291908181526020018280546111ae9061373a565b80156111fb5780601f106111d0576101008083540402835291602001916111fb565b820191906000526020600020905b8154815290600101906020018083116111de57829003601f168201915b505050505081526020016007820160009054906101000a900460ff161515151581526020016007820160019054906101000a900460ff161515151581526020016007820160029054906101000a900473ffffffffffffffffffffffffffffffffffffffff1673ffffffffffffffffffffffffffffffffffffffff1673ffffffffffffffffffffffffffffffffffffffff1681526020016008820160009054906101000a900473ffffffffffffffffffffffffffffffffffffffff1673ffffffffffffffffffffffffffffffffffffffff1673ffffffffffffffffffffffffffffffffffffffff1681526020016009820160009054906101000a900473ffffffffffffffffffffffffffffffffffffffff1673ffffffffffffffffffffffffffffffffffffffff1673ffffffffffffffffffffffffffffffffffffffff168152505093505050509695505050505050565b60006040518060400160405280600b81526020017f756e6174686f72697a65640000000000000000000000000000000000000000008152506113ad7f000000000000000000000000000000000000000000000000000000000000000033611436565b81906113ef576040517f08c379a00000000000000000000000000000000000000000000000000000000081526004016113e691906134ba565b60405180910390fd5b50600860003373ffffffffffffffffffffffffffffffffffffffff1673ffffffffffffffffffffffffffffffffffffffff1681526020019081526020016000205491505090565b600080600084815260200190815260200160002060000160008373ffffffffffffffffffffffffffffffffffffffff1673ffffffffffffffffffffffffffffffffffffffff16815260200190815260200160002060009054906101000a900460ff16905092915050565b6000801b81565b6114af6129e1565b604051806060016040528060248152602001613f44602491396114f27f000000000000000000000000000000000000000000000000000000000000000033611436565b8190611534576040517f08c379a000000000000000000000000000000000000000000000000000000000815260040161152b91906134ba565b60405180910390fd5b50600060056000868152602001908152602001600020905061155581612423565b831561157a57806002016000815480929190611570906137fe565b9190505550611595565b80600301600081548092919061158f906137fe565b91905055505b600660003373ffffffffffffffffffffffffffffffffffffffff1673ffffffffffffffffffffffffffffffffffffffff16815260200190815260200160002081600001549080600181540180825580915050600190039060005260206000200160009091909190915055600760008260000154815260200190815260200160002060405180606001604052803373ffffffffffffffffffffffffffffffffffffffff168152602001428152602001861515815250908060018154018082558091505060019003906000526020600020906003020160009091909190915060008201518160000160006101000a81548173ffffffffffffffffffffffffffffffffffffffff021916908373ffffffffffffffffffffffffffffffffffffffff1602179055506020820151816001015560408201518160020160006101000a81548160ff02191690831515021790555050508060070160029054906101000a900473ffffffffffffffffffffffffffffffffffffffff1673ffffffffffffffffffffffffffffffffffffffff163373ffffffffffffffffffffffffffffffffffffffff167f547e0c985508bf44e88e036a89b60fb24d98f87250028cb1b4f9991ab734e6957f00000000000000000000000000000000000000000000000000000000000000008460010154856002015486600301548a60405161179a959493929190613971565b60405180910390a360405180606001604052803373ffffffffffffffffffffffffffffffffffffffff1681526020014281526020018515158152509250505092915050565b606060025467ffffffffffffffff8111156117fd576117fc6139d7565b5b60405190808252806020026020018201604052801561183657816020015b6118236128b4565b81526020019060019003908161181b5790505b50905060005b600254811015611b2457600560008281526020019081526020016000206040518061018001604052908160008201548152602001600182015481526020016002820154815260200160038201548152602001600482015481526020016005820180546118a79061373a565b80601f01602080910402602001604051908101604052809291908181526020018280546118d39061373a565b80156119205780601f106118f557610100808354040283529160200191611920565b820191906000526020600020905b81548152906001019060200180831161190357829003601f168201915b505050505081526020016006820180546119399061373a565b80601f01602080910402602001604051908101604052809291908181526020018280546119659061373a565b80156119b25780601f10611987576101008083540402835291602001916119b2565b820191906000526020600020905b81548152906001019060200180831161199557829003601f168201915b505050505081526020016007820160009054906101000a900460ff161515151581526020016007820160019054906101000a900460ff161515151581526020016007820160029054906101000a900473ffffffffffffffffffffffffffffffffffffffff1673ffffffffffffffffffffffffffffffffffffffff1673ffffffffffffffffffffffffffffffffffffffff1681526020016008820160009054906101000a900473ffffffffffffffffffffffffffffffffffffffff1673ffffffffffffffffffffffffffffffffffffffff1673ffffffffffffffffffffffffffffffffffffffff1681526020016009820160009054906101000a900473ffffffffffffffffffffffffffffffffffffffff1673ffffffffffffffffffffffffffffffffffffffff1673ffffffffffffffffffffffffffffffffffffffff1681525050828281518110611b0657611b05613a06565b5b60200260200101819052508080611b1c906137fe565b91505061183c565b5090565b611b3182610a3f565b611b3a81612246565b611b448383612342565b505050565b600080600860003373ffffffffffffffffffffffffffffffffffffffff1673ffffffffffffffffffffffffffffffffffffffff1681526020019081526020016000205411905090565b6000803411611bd6576040517f08c379a0000000000000000000000000000000000000000000000000000000008152600401611bcd90613a81565b60405180910390fd5b611c007f000000000000000000000000000000000000000000000000000000000000000033611436565b611df457600034600860003373ffffffffffffffffffffffffffffffffffffffff1673ffffffffffffffffffffffffffffffffffffffff16815260200190815260200160002054611c519190613847565b90507f00000000000000000000000000000000000000000000000000000000000000008110611d6d5734600960003373ffffffffffffffffffffffffffffffffffffffff1673ffffffffffffffffffffffffffffffffffffffff1681526020019081526020016000208190555034600860003373ffffffffffffffffffffffffffffffffffffffff1673ffffffffffffffffffffffffffffffffffffffff1681526020019081526020016000206000828254611d0d9190613847565b92505081905550611d3e7f0000000000000000000000000000000000000000000000000000000000000000336125b8565b611d687f0000000000000000000000000000000000000000000000000000000000000000336125b8565b611dee565b34600860003373ffffffffffffffffffffffffffffffffffffffff1673ffffffffffffffffffffffffffffffffffffffff1681526020019081526020016000206000828254611dbc9190613847565b92505081905550611ded7f0000000000000000000000000000000000000000000000000000000000000000336125b8565b5b50611ea1565b34600960003373ffffffffffffffffffffffffffffffffffffffff1673ffffffffffffffffffffffffffffffffffffffff1681526020019081526020016000206000828254611e439190613847565b9250508190555034600860003373ffffffffffffffffffffffffffffffffffffffff1673ffffffffffffffffffffffffffffffffffffffff1681526020019081526020016000206000828254611e999190613847565b925050819055505b3460036000828254611eb39190613847565b925050819055503073ffffffffffffffffffffffffffffffffffffffff163373ffffffffffffffffffffffffffffffffffffffff167f73a1cb60f50f2e728bc99e4885df312cacdf69558d195a114a0e37d2836696a37f000000000000000000000000000000000000000000000000000000000000000034604051611f39929190613b13565b60405180910390a3600354905090565b600080600960003373ffffffffffffffffffffffffffffffffffffffff1673ffffffffffffffffffffffffffffffffffffffff1681526020019081526020016000205411905090565b60606040518060400160405280600c81526020017f556e617574686f72697a65640000000000000000000000000000000000000000815250611ff47f000000000000000000000000000000000000000000000000000000000000000033611436565b8190612036576040517f08c379a000000000000000000000000000000000000000000000000000000000815260040161202d91906134ba565b60405180910390fd5b50600660003373ffffffffffffffffffffffffffffffffffffffff1673ffffffffffffffffffffffffffffffffffffffff1681526020019081526020016000208054806020026020016040519081016040528092919081815260200182805480156120c057602002820191906000526020600020905b8154815260200190600101908083116120ac575b505050505091505090565b60007f01ffc9a7000000000000000000000000000000000000000000000000000000007bffffffffffffffffffffffffffffffffffffffffffffffffffffffff1916827bffffffffffffffffffffffffffffffffffffffffffffffffffffffff1916149050919050565b6002600154141561217b576040517f08c379a000000000000000000000000000000000000000000000000000000000815260040161217290613b9b565b60405180910390fd5b6002600181905550565b6000808273ffffffffffffffffffffffffffffffffffffffff16846040516121ac90613bec565b60006040518083038185875af1925050503d80600081146121e9576040519150601f19603f3d011682016040523d82523d6000602084013e6121ee565b606091505b5050905080612232576040517f08c379a000000000000000000000000000000000000000000000000000000000815260040161222990613c4d565b60405180910390fd5b600191505092915050565b60018081905550565b6122578161225261233a565b6125c6565b50565b6122648282611436565b61233657600160008084815260200190815260200160002060000160008373ffffffffffffffffffffffffffffffffffffffff1673ffffffffffffffffffffffffffffffffffffffff16815260200190815260200160002060006101000a81548160ff0219169083151502179055506122db61233a565b73ffffffffffffffffffffffffffffffffffffffff168173ffffffffffffffffffffffffffffffffffffffff16837f2f8788117e7eff1d82e926ec794901d17c78024a50270940304540a733656f0d60405160405180910390a45b5050565b600033905090565b61234c8282611436565b1561241f57600080600084815260200190815260200160002060000160008373ffffffffffffffffffffffffffffffffffffffff1673ffffffffffffffffffffffffffffffffffffffff16815260200190815260200160002060006101000a81548160ff0219169083151502179055506123c461233a565b73ffffffffffffffffffffffffffffffffffffffff168173ffffffffffffffffffffffffffffffffffffffff16837ff6391f5c32d9c69d2a47ea670b442974b53935d1edc7fd64eb21e047a839171b60405160405180910390a45b5050565b8060070160019054906101000a900460ff1680612444575042816004015411155b156124a15760018160070160016101000a81548160ff0219169083151502179055506040517f08c379a000000000000000000000000000000000000000000000000000000000815260040161249890613cb9565b60405180910390fd5b6000600660003373ffffffffffffffffffffffffffffffffffffffff1673ffffffffffffffffffffffffffffffffffffffff16815260200190815260200160002080548060200260200160405190810160405280929190818152602001828054801561252c57602002820191906000526020600020905b815481526020019060010190808311612518575b5050505050905060005b81518110156125b35781818151811061255257612551613a06565b5b6020026020010151836000015414156125a0576040517f08c379a000000000000000000000000000000000000000000000000000000000815260040161259790613d25565b60405180910390fd5b80806125ab906137fe565b915050612536565b505050565b6125c2828261225a565b5050565b6125d08282611436565b612647576125dd8161264b565b6125eb8360001c6020612678565b6040516020016125fc929190613e19565b6040516020818303038152906040526040517f08c379a000000000000000000000000000000000000000000000000000000000815260040161263e91906134ba565b60405180910390fd5b5050565b60606126718273ffffffffffffffffffffffffffffffffffffffff16601460ff16612678565b9050919050565b60606000600283600261268b9190613e53565b6126959190613847565b67ffffffffffffffff8111156126ae576126ad6139d7565b5b6040519080825280601f01601f1916602001820160405280156126e05781602001600182028036833780820191505090505b5090507f30000000000000000000000000000000000000000000000000000000000000008160008151811061271857612717613a06565b5b60200101907effffffffffffffffffffffffffffffffffffffffffffffffffffffffffffff1916908160001a9053507f78000000000000000000000000000000000000000000000000000000000000008160018151811061277c5761277b613a06565b5b60200101907effffffffffffffffffffffffffffffffffffffffffffffffffffffffffffff1916908160001a905350600060018460026127bc9190613e53565b6127c69190613847565b90505b6001811115612866577f3031323334353637383961626364656600000000000000000000000000000000600f86166010811061280857612807613a06565b5b1a60f81b82828151811061281f5761281e613a06565b5b60200101907effffffffffffffffffffffffffffffffffffffffffffffffffffffffffffff1916908160001a905350600485901c94508061285f90613ead565b90506127c9565b50600084146128aa576040517f08c379a00000000000000000000000000000000000000000000000000000000081526004016128a190613f23565b60405180910390fd5b8091505092915050565b60405180610180016040528060008152602001600081526020016000815260200160008152602001600081526020016060815260200160608152602001600015158152602001600015158152602001600073ffffffffffffffffffffffffffffffffffffffff168152602001600073ffffffffffffffffffffffffffffffffffffffff168152602001600073ffffffffffffffffffffffffffffffffffffffff1681525090565b8280546129679061373a565b90600052602060002090601f01602090048101928261298957600085556129d0565b82601f106129a257803560ff19168380011785556129d0565b828001600101855582156129d0579182015b828111156129cf5782358255916020019190600101906129b4565b5b5090506129dd9190612a1a565b5090565b6040518060600160405280600073ffffffffffffffffffffffffffffffffffffffff168152602001600081526020016000151581525090565b5b80821115612a33576000816000905550600101612a1b565b5090565b600080fd5b600080fd5b60007fffffffff0000000000000000000000000000000000000000000000000000000082169050919050565b612a7681612a41565b8114612a8157600080fd5b50565b600081359050612a9381612a6d565b92915050565b600060208284031215612aaf57612aae612a37565b5b6000612abd84828501612a84565b91505092915050565b60008115159050919050565b612adb81612ac6565b82525050565b6000602082019050612af66000830184612ad2565b92915050565b6000819050919050565b612b0f81612afc565b8114612b1a57600080fd5b50565b600081359050612b2c81612b06565b92915050565b600060208284031215612b4857612b47612a37565b5b6000612b5684828501612b1d565b91505092915050565b612b6881612afc565b82525050565b6000602082019050612b836000830184612b5f565b92915050565b600081519050919050565b600082825260208201905092915050565b6000819050602082019050919050565b600073ffffffffffffffffffffffffffffffffffffffff82169050919050565b6000612be082612bb5565b9050919050565b612bf081612bd5565b82525050565b612bff81612afc565b82525050565b612c0e81612ac6565b82525050565b606082016000820151612c2a6000850182612be7565b506020820151612c3d6020850182612bf6565b506040820151612c506040850182612c05565b50505050565b6000612c628383612c14565b60608301905092915050565b6000602082019050919050565b6000612c8682612b89565b612c908185612b94565b9350612c9b83612ba5565b8060005b83811015612ccc578151612cb38882612c56565b9750612cbe83612c6e565b925050600181019050612c9f565b5085935050505092915050565b60006020820190508181036000830152612cf38184612c7b565b905092915050565b6000819050919050565b612d0e81612cfb565b8114612d1957600080fd5b50565b600081359050612d2b81612d05565b92915050565b600060208284031215612d4757612d46612a37565b5b6000612d5584828501612d1c565b91505092915050565b612d6781612cfb565b82525050565b6000602082019050612d826000830184612d5e565b92915050565b600081519050919050565b600082825260208201905092915050565b60005b83811015612dc2578082015181840152602081019050612da7565b83811115612dd1576000848401525b50505050565b6000601f19601f8301169050919050565b6000612df382612d88565b612dfd8185612d93565b9350612e0d818560208601612da4565b612e1681612dd7565b840191505092915050565b6000612e2c82612bb5565b9050919050565b612e3c81612e21565b82525050565b600061018083016000830151612e5b6000860182612bf6565b506020830151612e6e6020860182612bf6565b506040830151612e816040860182612bf6565b506060830151612e946060860182612bf6565b506080830151612ea76080860182612bf6565b5060a083015184820360a0860152612ebf8282612de8565b91505060c083015184820360c0860152612ed98282612de8565b91505060e0830151612eee60e0860182612c05565b50610100830151612f03610100860182612c05565b50610120830151612f18610120860182612e33565b50610140830151612f2d610140860182612be7565b50610160830151612f42610160860182612be7565b508091505092915050565b60006020820190508181036000830152612f678184612e42565b905092915050565b612f7881612bd5565b8114612f8357600080fd5b50565b600081359050612f9581612f6f565b92915050565b60008060408385031215612fb257612fb1612a37565b5b6000612fc085828601612d1c565b9250506020612fd185828601612f86565b9150509250929050565b600080fd5b600080fd5b600080fd5b60008083601f84011261300057612fff612fdb565b5b8235905067ffffffffffffffff81111561301d5761301c612fe0565b5b60208301915083600182028301111561303957613038612fe5565b5b9250929050565b6000806000806000806080878903121561305d5761305c612a37565b5b600087013567ffffffffffffffff81111561307b5761307a612a3c565b5b61308789828a01612fea565b9650965050602087013567ffffffffffffffff8111156130aa576130a9612a3c565b5b6130b689828a01612fea565b945094505060406130c989828a01612f86565b92505060606130da89828a01612b1d565b9150509295509295509295565b6130f081612ac6565b81146130fb57600080fd5b50565b60008135905061310d816130e7565b92915050565b6000806040838503121561312a57613129612a37565b5b600061313885828601612b1d565b9250506020613149858286016130fe565b9150509250929050565b6060820160008201516131696000850182612be7565b50602082015161317c6020850182612bf6565b50604082015161318f6040850182612c05565b50505050565b60006060820190506131aa6000830184613153565b92915050565b600081519050919050565b600082825260208201905092915050565b6000819050602082019050919050565b6000610180830160008301516131f56000860182612bf6565b5060208301516132086020860182612bf6565b50604083015161321b6040860182612bf6565b50606083015161322e6060860182612bf6565b5060808301516132416080860182612bf6565b5060a083015184820360a08601526132598282612de8565b91505060c083015184820360c08601526132738282612de8565b91505060e083015161328860e0860182612c05565b5061010083015161329d610100860182612c05565b506101208301516132b2610120860182612e33565b506101408301516132c7610140860182612be7565b506101608301516132dc610160860182612be7565b508091505092915050565b60006132f383836131dc565b905092915050565b6000602082019050919050565b6000613313826131b0565b61331d81856131bb565b93508360208202850161332f856131cc565b8060005b8581101561336b578484038952815161334c85826132e7565b9450613357836132fb565b925060208a01995050600181019050613333565b50829750879550505050505092915050565b600060208201905081810360008301526133978184613308565b905092915050565b600081519050919050565b600082825260208201905092915050565b6000819050602082019050919050565b60006133d78383612bf6565b60208301905092915050565b6000602082019050919050565b60006133fb8261339f565b61340581856133aa565b9350613410836133bb565b8060005b8381101561344157815161342888826133cb565b9750613433836133e3565b925050600181019050613414565b5085935050505092915050565b6000602082019050818103600083015261346881846133f0565b905092915050565b600082825260208201905092915050565b600061348c82612d88565b6134968185613470565b93506134a6818560208601612da4565b6134af81612dd7565b840191505092915050565b600060208201905081810360008301526134d48184613481565b905092915050565b7f696e73756666696369656e742066756e64000000000000000000000000000000600082015250565b6000613512601183613470565b915061351d826134dc565b602082019050919050565b6000602082019050818103600083015261354181613505565b9050919050565b7f7061796d656e7420616c7265616479206d616465000000000000000000000000600082015250565b600061357e601483613470565b915061358982613548565b602082019050919050565b600060208201905081810360008301526135ad81613571565b9050919050565b7f696e73756666696369656e7420766f7465730000000000000000000000000000600082015250565b60006135ea601283613470565b91506135f5826135b4565b602082019050919050565b60006020820190508181036000830152613619816135dd565b9050919050565b7f4e487b7100000000000000000000000000000000000000000000000000000000600052601160045260246000fd5b600061365a82612afc565b915061366583612afc565b92508282101561367857613677613620565b5b828203905092915050565b7f5041594d454e54205355434345535346554c4c59204d41444521000000000000600082015250565b60006136b9601a83613470565b91506136c482613683565b602082019050919050565b60006060820190506136e46000830185612d5e565b81810360208301526136f5816136ac565b90506137046040830184612b5f565b9392505050565b7f4e487b7100000000000000000000000000000000000000000000000000000000600052602260045260246000fd5b6000600282049050600182168061375257607f821691505b602082108114156137665761376561370b565b5b50919050565b7f416363657373436f6e74726f6c3a2063616e206f6e6c792072656e6f756e636560008201527f20726f6c657320666f722073656c660000000000000000000000000000000000602082015250565b60006137c8602f83613470565b91506137d38261376c565b604082019050919050565b600060208201905081810360008301526137f7816137bb565b9050919050565b600061380982612afc565b91507fffffffffffffffffffffffffffffffffffffffffffffffffffffffffffffffff82141561383c5761383b613620565b5b600182019050919050565b600061385282612afc565b915061385d83612afc565b9250827fffffffffffffffffffffffffffffffffffffffffffffffffffffffffffffffff0382111561389257613891613620565b5b828201905092915050565b7f50726f706f73616c205261697365640000000000000000000000000000000000600082015250565b60006138d3600f83613470565b91506138de8261389d565b602082019050919050565b60006060820190506138fe6000830185612d5e565b818103602083015261390f816138c6565b905061391e6040830184612b5f565b9392505050565b7f50524f504f53414c20564f544500000000000000000000000000000000000000600082015250565b600061395b600d83613470565b915061396682613925565b602082019050919050565b600060c0820190506139866000830188612d5e565b81810360208301526139978161394e565b90506139a66040830187612b5f565b6139b36060830186612b5f565b6139c06080830185612b5f565b6139cd60a0830184612ad2565b9695505050505050565b7f4e487b7100000000000000000000000000000000000000000000000000000000600052604160045260246000fd5b7f4e487b7100000000000000000000000000000000000000000000000000000000600052603260045260246000fd5b7f696e76616c696420616d6f756e74000000000000000000000000000000000000600082015250565b6000613a6b600e83613470565b9150613a7682613a35565b602082019050919050565b60006020820190508181036000830152613a9a81613a5e565b9050919050565b7f434f4e545249425554494f4e205355434345535346554c4c592052454345495660008201527f4544210000000000000000000000000000000000000000000000000000000000602082015250565b6000613afd602383613470565b9150613b0882613aa1565b604082019050919050565b6000606082019050613b286000830185612d5e565b8181036020830152613b3981613af0565b9050613b486040830184612b5f565b9392505050565b7f5265656e7472616e637947756172643a207265656e7472616e742063616c6c00600082015250565b6000613b85601f83613470565b9150613b9082613b4f565b602082019050919050565b60006020820190508181036000830152613bb481613b78565b9050919050565b600081905092915050565b50565b6000613bd6600083613bbb565b9150613be182613bc6565b600082019050919050565b6000613bf782613bc9565b9150819050919050565b7f7061796d656e74206661696c6564000000000000000000000000000000000000600082015250565b6000613c37600e83613470565b9150613c4282613c01565b602082019050919050565b60006020820190508181036000830152613c6681613c2a565b9050919050565b7f54696d652068617320616c726561647920706173736564000000000000000000600082015250565b6000613ca3601783613470565b9150613cae82613c6d565b602082019050919050565b60006020820190508181036000830152613cd281613c96565b9050919050565b7f646f75626c6520766f74696e67206973206e6f7420616c6c6f77656400000000600082015250565b6000613d0f601c83613470565b9150613d1a82613cd9565b602082019050919050565b60006020820190508181036000830152613d3e81613d02565b9050919050565b600081905092915050565b7f416363657373436f6e74726f6c3a206163636f756e7420000000000000000000600082015250565b6000613d86601783613d45565b9150613d9182613d50565b601782019050919050565b6000613da782612d88565b613db18185613d45565b9350613dc1818560208601612da4565b80840191505092915050565b7f206973206d697373696e6720726f6c6520000000000000000000000000000000600082015250565b6000613e03601183613d45565b9150613e0e82613dcd565b601182019050919050565b6000613e2482613d79565b9150613e308285613d9c565b9150613e3b82613df6565b9150613e478284613d9c565b91508190509392505050565b6000613e5e82612afc565b9150613e6983612afc565b9250817fffffffffffffffffffffffffffffffffffffffffffffffffffffffffffffffff0483118215151615613ea257613ea1613620565b5b828202905092915050565b6000613eb882612afc565b91506000821415613ecc57613ecb613620565b5b600182039050919050565b7f537472696e67733a20686578206c656e67746820696e73756666696369656e74600082015250565b6000613f0d602083613470565b9150613f1882613ed7565b602082019050919050565b60006020820190508181036000830152613f3c81613f00565b905091905056fe4f6e6c79207374616b65686f6c646572732063616e20706572666f726d20766f74696e674f6e6c79207374616b65686f6c646572732063616e206d616b65207061796d656e744f6e6c79207374616b65686f6c646572732061726520616c6c6f77656420746f206372656174652050726f706f73616c73a264697066735822122031340ac252c8be2284f59a066becaf639eb423a2d4bf2281d44761078fb2c30864736f6c63430008090033",
  "devdoc": {
    "kind": "dev",
    "methods": {
      "getRoleAdmin(bytes32)": {
        "details": "Returns the admin role that controls `role`. See {grantRole} and {revokeRole}. To change a role's admin, use {_setRoleAdmin}."
      },
      "grantRole(bytes32,address)": {
        "details": "Grants `role` to `account`. If `account` had not been already granted `role`, emits a {RoleGranted} event. Requirements: - the caller must have ``role``'s admin role. May emit a {RoleGranted} event."
      },
      "hasRole(bytes32,address)": {
        "details": "Returns `true` if `account` has been granted `role`."
      },
      "renounceRole(bytes32,address)": {
        "details": "Revokes `role` from the calling account. Roles are often managed via {grantRole} and {revokeRole}: this function's purpose is to provide a mechanism for accounts to lose their privileges if they are compromised (such as when a trusted device is misplaced). If the calling account had been revoked `role`, emits a {RoleRevoked} event. Requirements: - the caller must be `account`. May emit a {RoleRevoked} event."
      },
      "revokeRole(bytes32,address)": {
        "details": "Revokes `role` from `account`. If `account` had been granted `role`, emits a {RoleRevoked} event. Requirements: - the caller must have ``role``'s admin role. May emit a {RoleRevoked} event."
      },
      "supportsInterface(bytes4)": {
        "details": "See {IERC165-supportsInterface}."
      }
    },
    "version": 1
  },
  "userdoc": {
    "kind": "user",
    "methods": {},
    "version": 1
  },
  "storageLayout": {
    "storage": [
      {
        "astId": 24,
        "contract": "contracts/DAO.sol:Dao",
        "label": "_roles",
        "offset": 0,
        "slot": "0",
        "type": "t_mapping(t_bytes32,t_struct(RoleData)19_storage)"
      },
      {
        "astId": 399,
        "contract": "contracts/DAO.sol:Dao",
        "label": "_status",
        "offset": 0,
        "slot": "1",
        "type": "t_uint256"
      },
      {
        "astId": 1550,
        "contract": "contracts/DAO.sol:Dao",
        "label": "totalProposals",
        "offset": 0,
        "slot": "2",
        "type": "t_uint256"
      },
      {
        "astId": 1552,
        "contract": "contracts/DAO.sol:Dao",
        "label": "balance",
        "offset": 0,
        "slot": "3",
        "type": "t_uint256"
      },
      {
        "astId": 1554,
        "contract": "contracts/DAO.sol:Dao",
        "label": "deployer",
        "offset": 0,
        "slot": "4",
        "type": "t_address"
      },
      {
        "astId": 1575,
        "contract": "contracts/DAO.sol:Dao",
        "label": "raisedProposals",
        "offset": 0,
        "slot": "5",
        "type": "t_mapping(t_uint256,t_struct(Proposals)1649_storage)"
      },
      {
        "astId": 1580,
        "contract": "contracts/DAO.sol:Dao",
        "label": "stakeholderVotes",
        "offset": 0,
        "slot": "6",
        "type": "t_mapping(t_address,t_array(t_uint256)dyn_storage)"
      },
      {
        "astId": 1586,
        "contract": "contracts/DAO.sol:Dao",
        "label": "votedOn",
        "offset": 0,
        "slot": "7",
        "type": "t_mapping(t_uint256,t_array(t_struct(Voted)1656_storage)dyn_storage)"
      },
      {
        "astId": 1590,
        "contract": "contracts/DAO.sol:Dao",
        "label": "contributors",
        "offset": 0,
        "slot": "8",
        "type": "t_mapping(t_address,t_uint256)"
      },
      {
        "astId": 1594,
        "contract": "contracts/DAO.sol:Dao",
        "label": "stakeholders",
        "offset": 0,
        "slot": "9",
        "type": "t_mapping(t_address,t_uint256)"
      }
    ],
    "types": {
      "t_address": {
        "encoding": "inplace",
        "label": "address",
        "numberOfBytes": "20"
      },
      "t_address_payable": {
        "encoding": "inplace",
        "label": "address payable",
        "numberOfBytes": "20"
      },
      "t_array(t_struct(Voted)1656_storage)dyn_storage": {
        "base": "t_struct(Voted)1656_storage",
        "encoding": "dynamic_array",
        "label": "struct Dao.Voted[]",
        "numberOfBytes": "32"
      },
      "t_array(t_uint256)dyn_storage": {
        "base": "t_uint256",
        "encoding": "dynamic_array",
        "label": "uint256[]",
        "numberOfBytes": "32"
      },
      "t_bool": {
        "encoding": "inplace",
        "label": "bool",
        "numberOfBytes": "1"
      },
      "t_bytes32": {
        "encoding": "inplace",
        "label": "bytes32",
        "numberOfBytes": "32"
      },
      "t_mapping(t_address,t_array(t_uint256)dyn_storage)": {
        "encoding": "mapping",
        "key": "t_address",
        "label": "mapping(address => uint256[])",
        "numberOfBytes": "32",
        "value": "t_array(t_uint256)dyn_storage"
      },
      "t_mapping(t_address,t_bool)": {
        "encoding": "mapping",
        "key": "t_address",
        "label": "mapping(address => bool)",
        "numberOfBytes": "32",
        "value": "t_bool"
      },
      "t_mapping(t_address,t_uint256)": {
        "encoding": "mapping",
        "key": "t_address",
        "label": "mapping(address => uint256)",
        "numberOfBytes": "32",
        "value": "t_uint256"
      },
      "t_mapping(t_bytes32,t_struct(RoleData)19_storage)": {
        "encoding": "mapping",
        "key": "t_bytes32",
        "label": "mapping(bytes32 => struct AccessControl.RoleData)",
        "numberOfBytes": "32",
        "value": "t_struct(RoleData)19_storage"
      },
      "t_mapping(t_uint256,t_array(t_struct(Voted)1656_storage)dyn_storage)": {
        "encoding": "mapping",
        "key": "t_uint256",
        "label": "mapping(uint256 => struct Dao.Voted[])",
        "numberOfBytes": "32",
        "value": "t_array(t_struct(Voted)1656_storage)dyn_storage"
      },
      "t_mapping(t_uint256,t_struct(Proposals)1649_storage)": {
        "encoding": "mapping",
        "key": "t_uint256",
        "label": "mapping(uint256 => struct Dao.Proposals)",
        "numberOfBytes": "32",
        "value": "t_struct(Proposals)1649_storage"
      },
      "t_string_storage": {
        "encoding": "bytes",
        "label": "string",
        "numberOfBytes": "32"
      },
      "t_struct(Proposals)1649_storage": {
        "encoding": "inplace",
        "label": "struct Dao.Proposals",
        "members": [
          {
            "astId": 1626,
            "contract": "contracts/DAO.sol:Dao",
            "label": "id",
            "offset": 0,
            "slot": "0",
            "type": "t_uint256"
          },
          {
            "astId": 1628,
            "contract": "contracts/DAO.sol:Dao",
            "label": "amount",
            "offset": 0,
            "slot": "1",
            "type": "t_uint256"
          },
          {
            "astId": 1630,
            "contract": "contracts/DAO.sol:Dao",
            "label": "upVote",
            "offset": 0,
            "slot": "2",
            "type": "t_uint256"
          },
          {
            "astId": 1632,
            "contract": "contracts/DAO.sol:Dao",
            "label": "downVotes",
            "offset": 0,
            "slot": "3",
            "type": "t_uint256"
          },
          {
            "astId": 1634,
            "contract": "contracts/DAO.sol:Dao",
            "label": "duration",
            "offset": 0,
            "slot": "4",
            "type": "t_uint256"
          },
          {
            "astId": 1636,
            "contract": "contracts/DAO.sol:Dao",
            "label": "title",
            "offset": 0,
            "slot": "5",
            "type": "t_string_storage"
          },
          {
            "astId": 1638,
            "contract": "contracts/DAO.sol:Dao",
            "label": "description",
            "offset": 0,
            "slot": "6",
            "type": "t_string_storage"
          },
          {
            "astId": 1640,
            "contract": "contracts/DAO.sol:Dao",
            "label": "paid",
            "offset": 0,
            "slot": "7",
            "type": "t_bool"
          },
          {
            "astId": 1642,
            "contract": "contracts/DAO.sol:Dao",
            "label": "passed",
            "offset": 1,
            "slot": "7",
            "type": "t_bool"
          },
          {
            "astId": 1644,
            "contract": "contracts/DAO.sol:Dao",
            "label": "beneficiary",
            "offset": 2,
            "slot": "7",
            "type": "t_address_payable"
          },
          {
            "astId": 1646,
            "contract": "contracts/DAO.sol:Dao",
            "label": "propoper",
            "offset": 0,
            "slot": "8",
            "type": "t_address"
          },
          {
            "astId": 1648,
            "contract": "contracts/DAO.sol:Dao",
            "label": "executor",
            "offset": 0,
            "slot": "9",
            "type": "t_address"
          }
        ],
        "numberOfBytes": "320"
      },
      "t_struct(RoleData)19_storage": {
        "encoding": "inplace",
        "label": "struct AccessControl.RoleData",
        "members": [
          {
            "astId": 16,
            "contract": "contracts/DAO.sol:Dao",
            "label": "members",
            "offset": 0,
            "slot": "0",
            "type": "t_mapping(t_address,t_bool)"
          },
          {
            "astId": 18,
            "contract": "contracts/DAO.sol:Dao",
            "label": "adminRole",
            "offset": 0,
            "slot": "1",
            "type": "t_bytes32"
          }
        ],
        "numberOfBytes": "64"
      },
      "t_struct(Voted)1656_storage": {
        "encoding": "inplace",
        "label": "struct Dao.Voted",
        "members": [
          {
            "astId": 1651,
            "contract": "contracts/DAO.sol:Dao",
            "label": "voter",
            "offset": 0,
            "slot": "0",
            "type": "t_address"
          },
          {
            "astId": 1653,
            "contract": "contracts/DAO.sol:Dao",
            "label": "timestamp",
            "offset": 0,
            "slot": "1",
            "type": "t_uint256"
          },
          {
            "astId": 1655,
            "contract": "contracts/DAO.sol:Dao",
            "label": "chosen",
            "offset": 0,
            "slot": "2",
            "type": "t_bool"
          }
        ],
        "numberOfBytes": "96"
      },
      "t_uint256": {
        "encoding": "inplace",
        "label": "uint256",
        "numberOfBytes": "32"
      }
    }
  }
}